{
  "_format": "hh-sol-artifact-1",
  "contractName": "NFTMarket",
  "sourceName": "contracts/NFTMarketplace.sol",
  "abi": [
    {
      "inputs": [],
      "stateMutability": "nonpayable",
      "type": "constructor"
    },
    {
      "anonymous": false,
      "inputs": [
        {
          "indexed": true,
          "internalType": "uint256",
          "name": "itemId",
          "type": "uint256"
        },
        {
          "indexed": true,
          "internalType": "address",
          "name": "nftContract",
          "type": "address"
        },
        {
          "indexed": true,
          "internalType": "uint256",
          "name": "tokenId",
          "type": "uint256"
        },
        {
          "indexed": false,
          "internalType": "address",
          "name": "seller",
          "type": "address"
        },
        {
          "indexed": false,
          "internalType": "address",
          "name": "owner",
          "type": "address"
        },
        {
          "indexed": false,
          "internalType": "uint256",
          "name": "price",
          "type": "uint256"
        },
        {
          "indexed": false,
          "internalType": "bool",
          "name": "sold",
          "type": "bool"
        }
      ],
      "name": "idMarketItemCreated",
      "type": "event"
    },
    {
      "inputs": [
        {
          "internalType": "address",
          "name": "nftContract",
          "type": "address"
        },
        {
          "internalType": "uint256",
          "name": "itemId",
          "type": "uint256"
        }
      ],
      "name": "cancelSaleToken",
      "outputs": [],
      "stateMutability": "payable",
      "type": "function"
    },
    {
      "inputs": [
        {
          "internalType": "address",
          "name": "nftContract",
          "type": "address"
        },
        {
          "internalType": "uint256",
          "name": "tokenId",
          "type": "uint256"
        },
        {
          "internalType": "uint256",
          "name": "price",
          "type": "uint256"
        }
      ],
      "name": "createMarketItem",
      "outputs": [],
      "stateMutability": "payable",
      "type": "function"
    },
    {
      "inputs": [
        {
          "internalType": "address",
          "name": "nftContract",
          "type": "address"
        },
        {
          "internalType": "uint256",
          "name": "itemId",
          "type": "uint256"
        }
      ],
      "name": "createMarketSale",
      "outputs": [],
      "stateMutability": "payable",
      "type": "function"
    },
    {
      "inputs": [],
      "name": "fetchAllItem",
      "outputs": [
        {
          "components": [
            {
              "internalType": "uint256",
              "name": "itemId",
              "type": "uint256"
            },
            {
              "internalType": "address",
              "name": "nftContract",
              "type": "address"
            },
            {
              "internalType": "uint256",
              "name": "tokenId",
              "type": "uint256"
            },
            {
              "internalType": "address payable",
              "name": "seller",
              "type": "address"
            },
            {
              "internalType": "address payable",
              "name": "owner",
              "type": "address"
            },
            {
              "internalType": "uint256",
              "name": "price",
              "type": "uint256"
            },
            {
              "internalType": "bool",
              "name": "sold",
              "type": "bool"
            }
          ],
          "internalType": "struct NFTMarket.MarketItem[]",
          "name": "",
          "type": "tuple[]"
        }
      ],
      "stateMutability": "view",
      "type": "function"
    },
    {
      "inputs": [],
      "name": "fetchAllTransaction",
      "outputs": [
        {
          "components": [
            {
              "internalType": "uint256",
              "name": "itemId",
              "type": "uint256"
            },
            {
              "internalType": "address",
              "name": "owner",
              "type": "address"
            },
            {
              "internalType": "uint256",
              "name": "cost",
              "type": "uint256"
            },
            {
              "internalType": "string",
              "name": "title",
              "type": "string"
            },
            {
              "internalType": "string",
              "name": "description",
              "type": "string"
            },
            {
              "internalType": "uint256",
              "name": "timestamp",
              "type": "uint256"
            }
          ],
          "internalType": "struct NFTMarket.Transaction[]",
          "name": "",
          "type": "tuple[]"
        }
      ],
      "stateMutability": "view",
      "type": "function"
    },
    {
      "inputs": [],
      "name": "fetchItemsCreated",
      "outputs": [
        {
          "components": [
            {
              "internalType": "uint256",
              "name": "itemId",
              "type": "uint256"
            },
            {
              "internalType": "address",
              "name": "nftContract",
              "type": "address"
            },
            {
              "internalType": "uint256",
              "name": "tokenId",
              "type": "uint256"
            },
            {
              "internalType": "address payable",
              "name": "seller",
              "type": "address"
            },
            {
              "internalType": "address payable",
              "name": "owner",
              "type": "address"
            },
            {
              "internalType": "uint256",
              "name": "price",
              "type": "uint256"
            },
            {
              "internalType": "bool",
              "name": "sold",
              "type": "bool"
            }
          ],
          "internalType": "struct NFTMarket.MarketItem[]",
          "name": "",
          "type": "tuple[]"
        }
      ],
      "stateMutability": "view",
      "type": "function"
    },
    {
      "inputs": [],
      "name": "fetchMarketItem",
      "outputs": [
        {
          "components": [
            {
              "internalType": "uint256",
              "name": "itemId",
              "type": "uint256"
            },
            {
              "internalType": "address",
              "name": "nftContract",
              "type": "address"
            },
            {
              "internalType": "uint256",
              "name": "tokenId",
              "type": "uint256"
            },
            {
              "internalType": "address payable",
              "name": "seller",
              "type": "address"
            },
            {
              "internalType": "address payable",
              "name": "owner",
              "type": "address"
            },
            {
              "internalType": "uint256",
              "name": "price",
              "type": "uint256"
            },
            {
              "internalType": "bool",
              "name": "sold",
              "type": "bool"
            }
          ],
          "internalType": "struct NFTMarket.MarketItem[]",
          "name": "",
          "type": "tuple[]"
        }
      ],
      "stateMutability": "view",
      "type": "function"
    },
    {
      "inputs": [],
      "name": "fetchMyNFT",
      "outputs": [
        {
          "components": [
            {
              "internalType": "uint256",
              "name": "itemId",
              "type": "uint256"
            },
            {
              "internalType": "address",
              "name": "nftContract",
              "type": "address"
            },
            {
              "internalType": "uint256",
              "name": "tokenId",
              "type": "uint256"
            },
            {
              "internalType": "address payable",
              "name": "seller",
              "type": "address"
            },
            {
              "internalType": "address payable",
              "name": "owner",
              "type": "address"
            },
            {
              "internalType": "uint256",
              "name": "price",
              "type": "uint256"
            },
            {
              "internalType": "bool",
              "name": "sold",
              "type": "bool"
            }
          ],
          "internalType": "struct NFTMarket.MarketItem[]",
          "name": "",
          "type": "tuple[]"
        }
      ],
      "stateMutability": "view",
      "type": "function"
    },
    {
      "inputs": [
        {
          "internalType": "uint256",
          "name": "itemId",
          "type": "uint256"
        }
      ],
      "name": "getItemId",
      "outputs": [
        {
          "components": [
            {
              "internalType": "uint256",
              "name": "itemId",
              "type": "uint256"
            },
            {
              "internalType": "address",
              "name": "nftContract",
              "type": "address"
            },
            {
              "internalType": "uint256",
              "name": "tokenId",
              "type": "uint256"
            },
            {
              "internalType": "address payable",
              "name": "seller",
              "type": "address"
            },
            {
              "internalType": "address payable",
              "name": "owner",
              "type": "address"
            },
            {
              "internalType": "uint256",
              "name": "price",
              "type": "uint256"
            },
            {
              "internalType": "bool",
              "name": "sold",
              "type": "bool"
            }
          ],
          "internalType": "struct NFTMarket.MarketItem",
          "name": "",
          "type": "tuple"
        }
      ],
      "stateMutability": "view",
      "type": "function"
    },
    {
      "inputs": [],
      "name": "getListingPrice",
      "outputs": [
        {
          "internalType": "uint256",
          "name": "",
          "type": "uint256"
        }
      ],
      "stateMutability": "view",
      "type": "function"
    },
    {
      "inputs": [],
      "name": "lastFunctionStatus",
      "outputs": [
        {
          "internalType": "bool",
          "name": "",
          "type": "bool"
        }
      ],
      "stateMutability": "view",
      "type": "function"
    },
    {
      "inputs": [
        {
          "internalType": "address",
          "name": "nftContract",
          "type": "address"
        },
        {
          "internalType": "uint256",
          "name": "itemId",
          "type": "uint256"
        },
        {
          "internalType": "uint256",
          "name": "price",
          "type": "uint256"
        }
      ],
      "name": "reSellToken",
      "outputs": [],
      "stateMutability": "payable",
      "type": "function"
    }
  ],
  "bytecode": "0x608060405266038d7ea4c6800060055566038d7ea4c6800060065534801561002657600080fd5b50600160008190555033600460006101000a81548173ffffffffffffffffffffffffffffffffffffffff021916908373ffffffffffffffffffffffffffffffffffffffff1602179055506131b78061007f6000396000f3fe6080604052600436106100a75760003560e01c806398e281fb1161006457806398e281fb1461019f578063a010c4fd146101bb578063a9a76ece146101d7578063c18763f714610214578063c23b139e1461023f578063f064c32e1461025b576100a7565b80630705ce08146100ac57806312e85585146100d7578063264a2b1a146101025780632de56d371461012d57806358eb2df5146101585780638fafd02114610174575b600080fd5b3480156100b857600080fd5b506100c1610286565b6040516100ce9190612381565b60405180910390f35b3480156100e357600080fd5b506100ec610299565b6040516100f991906123b5565b60405180910390f35b34801561010e57600080fd5b506101176102a3565b604051610124919061258d565b60405180910390f35b34801561013957600080fd5b506101426104e8565b60405161014f9190612791565b60405180910390f35b610172600480360381019061016d9190612810565b610774565b005b34801561018057600080fd5b50610189610bec565b604051610196919061258d565b60405180910390f35b6101b960048036038101906101b49190612863565b610ec1565b005b6101d560048036038101906101d09190612810565b611263565b005b3480156101e357600080fd5b506101fe60048036038101906101f991906128a3565b6115a8565b60405161020b919061295e565b60405180910390f35b34801561022057600080fd5b50610229611710565b604051610236919061258d565b60405180910390f35b61025960048036038101906102549190612863565b611a72565b005b34801561026757600080fd5b50610270611e5e565b60405161027d919061258d565b60405180910390f35b600960009054906101000a900460ff1681565b6000600554905090565b606060006102b160016121c0565b90506000808267ffffffffffffffff8111156102d0576102cf612979565b5b60405190808252806020026020018201604052801561030957816020015b6102f6612299565b8152602001906001900390816102ee5790505b50905060005b838110156104de5760006007600060018461032a91906129d7565b81526020019081526020016000206000015490506000600760008381526020019081526020016000206040518060e0016040529081600082015481526020016001820160009054906101000a900473ffffffffffffffffffffffffffffffffffffffff1673ffffffffffffffffffffffffffffffffffffffff1673ffffffffffffffffffffffffffffffffffffffff168152602001600282015481526020016003820160009054906101000a900473ffffffffffffffffffffffffffffffffffffffff1673ffffffffffffffffffffffffffffffffffffffff1673ffffffffffffffffffffffffffffffffffffffff1681526020016004820160009054906101000a900473ffffffffffffffffffffffffffffffffffffffff1673ffffffffffffffffffffffffffffffffffffffff1673ffffffffffffffffffffffffffffffffffffffff168152602001600582015481526020016006820160009054906101000a900460ff1615151515815250509050808486815181106104af576104ae612a0b565b5b60200260200101819052506001856104c791906129d7565b9450505080806104d690612a3a565b91505061030f565b5080935050505090565b606060006104f660036121c0565b90506000808267ffffffffffffffff81111561051557610514612979565b5b60405190808252806020026020018201604052801561054e57816020015b61053b61231a565b8152602001906001900390816105335790505b50905060005b8381101561076a57600060018261056b91906129d7565b90506000600860008381526020019081526020016000206040518060c0016040529081600082015481526020016001820160009054906101000a900473ffffffffffffffffffffffffffffffffffffffff1673ffffffffffffffffffffffffffffffffffffffff1673ffffffffffffffffffffffffffffffffffffffff1681526020016002820154815260200160038201805461060790612ab1565b80601f016020809104026020016040519081016040528092919081815260200182805461063390612ab1565b80156106805780601f1061065557610100808354040283529160200191610680565b820191906000526020600020905b81548152906001019060200180831161066357829003601f168201915b5050505050815260200160048201805461069990612ab1565b80601f01602080910402602001604051908101604052809291908181526020018280546106c590612ab1565b80156107125780601f106106e757610100808354040283529160200191610712565b820191906000526020600020905b8154815290600101906020018083116106f557829003601f168201915b5050505050815260200160058201548152505090508084868151811061073b5761073a612a0b565b5b602002602001018190525060018561075391906129d7565b94505050808061076290612a3a565b915050610554565b5080935050505090565b61077c6121ce565b600081116107bf576040517f08c379a00000000000000000000000000000000000000000000000000000000081526004016107b690612b3f565b60405180910390fd5b6005543414610803576040517f08c379a00000000000000000000000000000000000000000000000000000000081526004016107fa90612bd1565b60405180910390fd5b61080d600161221d565b600061081960016121c0565b90506040518060e001604052808281526020018573ffffffffffffffffffffffffffffffffffffffff1681526020018481526020013373ffffffffffffffffffffffffffffffffffffffff1681526020013073ffffffffffffffffffffffffffffffffffffffff16815260200183815260200160001515815250600760008381526020019081526020016000206000820151816000015560208201518160010160006101000a81548173ffffffffffffffffffffffffffffffffffffffff021916908373ffffffffffffffffffffffffffffffffffffffff1602179055506040820151816002015560608201518160030160006101000a81548173ffffffffffffffffffffffffffffffffffffffff021916908373ffffffffffffffffffffffffffffffffffffffff16021790555060808201518160040160006101000a81548173ffffffffffffffffffffffffffffffffffffffff021916908373ffffffffffffffffffffffffffffffffffffffff16021790555060a0820151816005015560c08201518160060160006101000a81548160ff0219169083151502179055509050508373ffffffffffffffffffffffffffffffffffffffff166323b872dd3330866040518463ffffffff1660e01b81526004016109f993929190612c00565b600060405180830381600087803b158015610a1357600080fd5b505af1158015610a27573d6000803e3d6000fd5b50505050828473ffffffffffffffffffffffffffffffffffffffff16827f2a64f50ccae16f7ed4cb808da4b14a4f0178d7b0a6b0bfa4ab7a90bebfe820163330876000604051610a7a9493929190612c37565b60405180910390a4610a8c600361221d565b6000610a9860036121c0565b905060006040518060400160405280600c81526020017f43726561746520546f6b656e0000000000000000000000000000000000000000815250905060006040518060600160405280602f815260200161312b602f913990506040518060c001604052808481526020013373ffffffffffffffffffffffffffffffffffffffff16815260200134815260200183815260200182815260200142815250600860008581526020019081526020016000206000820151816000015560208201518160010160006101000a81548173ffffffffffffffffffffffffffffffffffffffff021916908373ffffffffffffffffffffffffffffffffffffffff160217905550604082015181600201556060820151816003019081610bb79190612e28565b506080820151816004019081610bcd9190612e28565b5060a0820151816005015590505050505050610be7612233565b505050565b60606000610bfa60016121c0565b90506000610c0860026121c0565b82610c139190612efa565b90506000808267ffffffffffffffff811115610c3257610c31612979565b5b604051908082528060200260200182016040528015610c6b57816020015b610c58612299565b815260200190600190039081610c505790505b50905060005b84811015610eb6573073ffffffffffffffffffffffffffffffffffffffff1660076000600184610ca191906129d7565b815260200190815260200160002060040160009054906101000a900473ffffffffffffffffffffffffffffffffffffffff1673ffffffffffffffffffffffffffffffffffffffff1603610ea357600060076000600184610d0191906129d7565b81526020019081526020016000206000015490506000600760008381526020019081526020016000206040518060e0016040529081600082015481526020016001820160009054906101000a900473ffffffffffffffffffffffffffffffffffffffff1673ffffffffffffffffffffffffffffffffffffffff1673ffffffffffffffffffffffffffffffffffffffff168152602001600282015481526020016003820160009054906101000a900473ffffffffffffffffffffffffffffffffffffffff1673ffffffffffffffffffffffffffffffffffffffff1673ffffffffffffffffffffffffffffffffffffffff1681526020016004820160009054906101000a900473ffffffffffffffffffffffffffffffffffffffff1673ffffffffffffffffffffffffffffffffffffffff1673ffffffffffffffffffffffffffffffffffffffff168152602001600582015481526020016006820160009054906101000a900460ff161515151581525050905080848681518110610e8657610e85612a0b565b5b6020026020010181905250600185610e9e91906129d7565b945050505b8080610eae90612a3a565b915050610c71565b508094505050505090565b610ec96121ce565b600060076000838152602001908152602001600020600501549050600060076000848152602001908152602001600020600201549050813414610f41576040517f08c379a0000000000000000000000000000000000000000000000000000000008152600401610f3890612fa0565b60405180910390fd5b6007600084815260200190815260200160002060030160009054906101000a900473ffffffffffffffffffffffffffffffffffffffff1673ffffffffffffffffffffffffffffffffffffffff166108fc349081150290604051600060405180830381858888f19350505050158015610fbd573d6000803e3d6000fd5b508373ffffffffffffffffffffffffffffffffffffffff166323b872dd3033846040518463ffffffff1660e01b8152600401610ffb93929190612c00565b600060405180830381600087803b15801561101557600080fd5b505af1158015611029573d6000803e3d6000fd5b50505050336007600085815260200190815260200160002060040160006101000a81548173ffffffffffffffffffffffffffffffffffffffff021916908373ffffffffffffffffffffffffffffffffffffffff16021790555061108c600261221d565b600460009054906101000a900473ffffffffffffffffffffffffffffffffffffffff1673ffffffffffffffffffffffffffffffffffffffff166108fc6005549081150290604051600060405180830381858888f193505050501580156110f6573d6000803e3d6000fd5b50611101600361221d565b600061110d60036121c0565b905060006040518060400160405280601181526020017f43616e63656c2053616c6520546f6b656e0000000000000000000000000000008152509050600060405180606001604052806028815260200161315a6028913990506040518060c001604052808481526020013373ffffffffffffffffffffffffffffffffffffffff168152602001600554815260200183815260200182815260200142815250600860008581526020019081526020016000206000820151816000015560208201518160010160006101000a81548173ffffffffffffffffffffffffffffffffffffffff021916908373ffffffffffffffffffffffffffffffffffffffff16021790555060408201518160020155606082015181600301908161122e9190612e28565b5060808201518160040190816112449190612e28565b5060a08201518160050155905050505050505061125f612233565b5050565b60055434146112a7576040517f08c379a000000000000000000000000000000000000000000000000000000000815260040161129e90613032565b60405180910390fd5b60006007600084815260200190815260200160002060060160006101000a81548160ff021916908315150217905550806007600084815260200190815260200160002060050181905550336007600084815260200190815260200160002060030160006101000a81548173ffffffffffffffffffffffffffffffffffffffff021916908373ffffffffffffffffffffffffffffffffffffffff160217905550306007600084815260200190815260200160002060040160006101000a81548173ffffffffffffffffffffffffffffffffffffffff021916908373ffffffffffffffffffffffffffffffffffffffff1602179055506113a5600261223d565b8273ffffffffffffffffffffffffffffffffffffffff166323b872dd333060076000878152602001908152602001600020600201546040518463ffffffff1660e01b81526004016113f893929190612c00565b600060405180830381600087803b15801561141257600080fd5b505af1158015611426573d6000803e3d6000fd5b50505050611434600361221d565b600061144060036121c0565b905060006040518060400160405280600c81526020017f526573616c6520546f6b656e0000000000000000000000000000000000000000815250905060006040518060400160405280601e81526020017f53616c65206120746f6b656e206166746572207765206275792074686973000081525090506040518060c001604052808481526020013373ffffffffffffffffffffffffffffffffffffffff16815260200134815260200183815260200182815260200142815250600860008581526020019081526020016000206000820151816000015560208201518160010160006101000a81548173ffffffffffffffffffffffffffffffffffffffff021916908373ffffffffffffffffffffffffffffffffffffffff16021790555060408201518160020155606082015181600301908161157c9190612e28565b5060808201518160040190816115929190612e28565b5060a08201518160050155905050505050505050565b6115b0612299565b600760008381526020019081526020016000206040518060e0016040529081600082015481526020016001820160009054906101000a900473ffffffffffffffffffffffffffffffffffffffff1673ffffffffffffffffffffffffffffffffffffffff1673ffffffffffffffffffffffffffffffffffffffff168152602001600282015481526020016003820160009054906101000a900473ffffffffffffffffffffffffffffffffffffffff1673ffffffffffffffffffffffffffffffffffffffff1673ffffffffffffffffffffffffffffffffffffffff1681526020016004820160009054906101000a900473ffffffffffffffffffffffffffffffffffffffff1673ffffffffffffffffffffffffffffffffffffffff1673ffffffffffffffffffffffffffffffffffffffff168152602001600582015481526020016006820160009054906101000a900460ff1615151515815250509050919050565b6060600061171e60016121c0565b905060008060005b838110156117c6573373ffffffffffffffffffffffffffffffffffffffff166007600060018461175691906129d7565b815260200190815260200160002060040160009054906101000a900473ffffffffffffffffffffffffffffffffffffffff1673ffffffffffffffffffffffffffffffffffffffff16036117b3576001836117b091906129d7565b92505b80806117be90612a3a565b915050611726565b5060008267ffffffffffffffff8111156117e3576117e2612979565b5b60405190808252806020026020018201604052801561181c57816020015b611809612299565b8152602001906001900390816118015790505b50905060005b84811015611a67573373ffffffffffffffffffffffffffffffffffffffff166007600060018461185291906129d7565b815260200190815260200160002060040160009054906101000a900473ffffffffffffffffffffffffffffffffffffffff1673ffffffffffffffffffffffffffffffffffffffff1603611a54576000600760006001846118b291906129d7565b81526020019081526020016000206000015490506000600760008381526020019081526020016000206040518060e0016040529081600082015481526020016001820160009054906101000a900473ffffffffffffffffffffffffffffffffffffffff1673ffffffffffffffffffffffffffffffffffffffff1673ffffffffffffffffffffffffffffffffffffffff168152602001600282015481526020016003820160009054906101000a900473ffffffffffffffffffffffffffffffffffffffff1673ffffffffffffffffffffffffffffffffffffffff1673ffffffffffffffffffffffffffffffffffffffff1681526020016004820160009054906101000a900473ffffffffffffffffffffffffffffffffffffffff1673ffffffffffffffffffffffffffffffffffffffff1673ffffffffffffffffffffffffffffffffffffffff168152602001600582015481526020016006820160009054906101000a900460ff161515151581525050905080848681518110611a3757611a36612a0b565b5b6020026020010181905250600185611a4f91906129d7565b945050505b8080611a5f90612a3a565b915050611822565b508094505050505090565b611a7a6121ce565b600060076000838152602001908152602001600020600501549050600060076000848152602001908152602001600020600201549050813414611af2576040517f08c379a0000000000000000000000000000000000000000000000000000000008152600401611ae990612fa0565b60405180910390fd5b6007600084815260200190815260200160002060030160009054906101000a900473ffffffffffffffffffffffffffffffffffffffff1673ffffffffffffffffffffffffffffffffffffffff166108fc349081150290604051600060405180830381858888f19350505050158015611b6e573d6000803e3d6000fd5b508373ffffffffffffffffffffffffffffffffffffffff166323b872dd3033846040518463ffffffff1660e01b8152600401611bac93929190612c00565b600060405180830381600087803b158015611bc657600080fd5b505af1158015611bda573d6000803e3d6000fd5b50505050336007600085815260200190815260200160002060040160006101000a81548173ffffffffffffffffffffffffffffffffffffffff021916908373ffffffffffffffffffffffffffffffffffffffff16021790555060016007600085815260200190815260200160002060060160006101000a81548160ff021916908315150217905550611c6c600261221d565b600460009054906101000a900473ffffffffffffffffffffffffffffffffffffffff1673ffffffffffffffffffffffffffffffffffffffff166108fc6005549081150290604051600060405180830381858888f19350505050158015611cd6573d6000803e3d6000fd5b50611ce1600361221d565b6000611ced60036121c0565b905060006040518060400160405280600981526020017f42757920546f6b656e0000000000000000000000000000000000000000000000815250905060006040518060400160405280601b81526020017f4f776e656420746f6b656e20627920627579696e6720746f6b656e000000000081525090506040518060c001604052808481526020013373ffffffffffffffffffffffffffffffffffffffff16815260200134815260200183815260200182815260200142815250600860008581526020019081526020016000206000820151816000015560208201518160010160006101000a81548173ffffffffffffffffffffffffffffffffffffffff021916908373ffffffffffffffffffffffffffffffffffffffff160217905550604082015181600201556060820151816003019081611e299190612e28565b506080820151816004019081611e3f9190612e28565b5060a082015181600501559050505050505050611e5a612233565b5050565b60606000611e6c60016121c0565b905060008060005b83811015611f14573373ffffffffffffffffffffffffffffffffffffffff1660076000600184611ea491906129d7565b815260200190815260200160002060030160009054906101000a900473ffffffffffffffffffffffffffffffffffffffff1673ffffffffffffffffffffffffffffffffffffffff1603611f0157600183611efe91906129d7565b92505b8080611f0c90612a3a565b915050611e74565b5060008267ffffffffffffffff811115611f3157611f30612979565b5b604051908082528060200260200182016040528015611f6a57816020015b611f57612299565b815260200190600190039081611f4f5790505b50905060005b848110156121b5573373ffffffffffffffffffffffffffffffffffffffff1660076000600184611fa091906129d7565b815260200190815260200160002060030160009054906101000a900473ffffffffffffffffffffffffffffffffffffffff1673ffffffffffffffffffffffffffffffffffffffff16036121a25760006007600060018461200091906129d7565b81526020019081526020016000206000015490506000600760008381526020019081526020016000206040518060e0016040529081600082015481526020016001820160009054906101000a900473ffffffffffffffffffffffffffffffffffffffff1673ffffffffffffffffffffffffffffffffffffffff1673ffffffffffffffffffffffffffffffffffffffff168152602001600282015481526020016003820160009054906101000a900473ffffffffffffffffffffffffffffffffffffffff1673ffffffffffffffffffffffffffffffffffffffff1673ffffffffffffffffffffffffffffffffffffffff1681526020016004820160009054906101000a900473ffffffffffffffffffffffffffffffffffffffff1673ffffffffffffffffffffffffffffffffffffffff1673ffffffffffffffffffffffffffffffffffffffff168152602001600582015481526020016006820160009054906101000a900460ff16151515158152505090508084868151811061218557612184612a0b565b5b602002602001018190525060018561219d91906129d7565b945050505b80806121ad90612a3a565b915050611f70565b508094505050505090565b600081600001549050919050565b600260005403612213576040517f08c379a000000000000000000000000000000000000000000000000000000000815260040161220a9061309e565b60405180910390fd5b6002600081905550565b6001816000016000828254019250508190555050565b6001600081905550565b60008160000154905060008111612289576040517f08c379a00000000000000000000000000000000000000000000000000000000081526004016122809061310a565b60405180910390fd5b6001810382600001819055505050565b6040518060e0016040528060008152602001600073ffffffffffffffffffffffffffffffffffffffff16815260200160008152602001600073ffffffffffffffffffffffffffffffffffffffff168152602001600073ffffffffffffffffffffffffffffffffffffffff168152602001600081526020016000151581525090565b6040518060c0016040528060008152602001600073ffffffffffffffffffffffffffffffffffffffff168152602001600081526020016060815260200160608152602001600081525090565b60008115159050919050565b61237b81612366565b82525050565b60006020820190506123966000830184612372565b92915050565b6000819050919050565b6123af8161239c565b82525050565b60006020820190506123ca60008301846123a6565b92915050565b600081519050919050565b600082825260208201905092915050565b6000819050602082019050919050565b6124058161239c565b82525050565b600073ffffffffffffffffffffffffffffffffffffffff82169050919050565b60006124368261240b565b9050919050565b6124468161242b565b82525050565b60006124578261240b565b9050919050565b6124678161244c565b82525050565b61247681612366565b82525050565b60e08201600082015161249260008501826123fc565b5060208201516124a5602085018261243d565b5060408201516124b860408501826123fc565b5060608201516124cb606085018261245e565b5060808201516124de608085018261245e565b5060a08201516124f160a08501826123fc565b5060c082015161250460c085018261246d565b50505050565b6000612516838361247c565b60e08301905092915050565b6000602082019050919050565b600061253a826123d0565b61254481856123db565b935061254f836123ec565b8060005b83811015612580578151612567888261250a565b975061257283612522565b925050600181019050612553565b5085935050505092915050565b600060208201905081810360008301526125a7818461252f565b905092915050565b600081519050919050565b600082825260208201905092915050565b6000819050602082019050919050565b600081519050919050565b600082825260208201905092915050565b60005b838110156126155780820151818401526020810190506125fa565b60008484015250505050565b6000601f19601f8301169050919050565b600061263d826125db565b61264781856125e6565b93506126578185602086016125f7565b61266081612621565b840191505092915050565b600060c08301600083015161268360008601826123fc565b506020830151612696602086018261243d565b5060408301516126a960408601826123fc565b50606083015184820360608601526126c18282612632565b915050608083015184820360808601526126db8282612632565b91505060a08301516126f060a08601826123fc565b508091505092915050565b6000612707838361266b565b905092915050565b6000602082019050919050565b6000612727826125af565b61273181856125ba565b935083602082028501612743856125cb565b8060005b8581101561277f578484038952815161276085826126fb565b945061276b8361270f565b925060208a01995050600181019050612747565b50829750879550505050505092915050565b600060208201905081810360008301526127ab818461271c565b905092915050565b600080fd5b6127c18161242b565b81146127cc57600080fd5b50565b6000813590506127de816127b8565b92915050565b6127ed8161239c565b81146127f857600080fd5b50565b60008135905061280a816127e4565b92915050565b600080600060608486031215612829576128286127b3565b5b6000612837868287016127cf565b9350506020612848868287016127fb565b9250506040612859868287016127fb565b9150509250925092565b6000806040838503121561287a576128796127b3565b5b6000612888858286016127cf565b9250506020612899858286016127fb565b9150509250929050565b6000602082840312156128b9576128b86127b3565b5b60006128c7848285016127fb565b91505092915050565b60e0820160008201516128e660008501826123fc565b5060208201516128f9602085018261243d565b50604082015161290c60408501826123fc565b50606082015161291f606085018261245e565b506080820151612932608085018261245e565b5060a082015161294560a08501826123fc565b5060c082015161295860c085018261246d565b50505050565b600060e08201905061297360008301846128d0565b92915050565b7f4e487b7100000000000000000000000000000000000000000000000000000000600052604160045260246000fd5b7f4e487b7100000000000000000000000000000000000000000000000000000000600052601160045260246000fd5b60006129e28261239c565b91506129ed8361239c565b9250828201905080821115612a0557612a046129a8565b5b92915050565b7f4e487b7100000000000000000000000000000000000000000000000000000000600052603260045260246000fd5b6000612a458261239c565b91507fffffffffffffffffffffffffffffffffffffffffffffffffffffffffffffffff8203612a7757612a766129a8565b5b600182019050919050565b7f4e487b7100000000000000000000000000000000000000000000000000000000600052602260045260246000fd5b60006002820490506001821680612ac957607f821691505b602082108103612adc57612adb612a82565b5b50919050565b600082825260208201905092915050565b7f5072696365206d757374206265206174206c6561737420312077656900000000600082015250565b6000612b29601c83612ae2565b9150612b3482612af3565b602082019050919050565b60006020820190508181036000830152612b5881612b1c565b9050919050565b7f5072696365206d75737420626520657175616c20746f206c697374696e67207060008201527f7269636500000000000000000000000000000000000000000000000000000000602082015250565b6000612bbb602483612ae2565b9150612bc682612b5f565b604082019050919050565b60006020820190508181036000830152612bea81612bae565b9050919050565b612bfa8161242b565b82525050565b6000606082019050612c156000830186612bf1565b612c226020830185612bf1565b612c2f60408301846123a6565b949350505050565b6000608082019050612c4c6000830187612bf1565b612c596020830186612bf1565b612c6660408301856123a6565b612c736060830184612372565b95945050505050565b60008190508160005260206000209050919050565b60006020601f8301049050919050565b600082821b905092915050565b600060088302612cde7fffffffffffffffffffffffffffffffffffffffffffffffffffffffffffffffff82612ca1565b612ce88683612ca1565b95508019841693508086168417925050509392505050565b6000819050919050565b6000612d25612d20612d1b8461239c565b612d00565b61239c565b9050919050565b6000819050919050565b612d3f83612d0a565b612d53612d4b82612d2c565b848454612cae565b825550505050565b600090565b612d68612d5b565b612d73818484612d36565b505050565b5b81811015612d9757612d8c600082612d60565b600181019050612d79565b5050565b601f821115612ddc57612dad81612c7c565b612db684612c91565b81016020851015612dc5578190505b612dd9612dd185612c91565b830182612d78565b50505b505050565b600082821c905092915050565b6000612dff60001984600802612de1565b1980831691505092915050565b6000612e188383612dee565b9150826002028217905092915050565b612e31826125db565b67ffffffffffffffff811115612e4a57612e49612979565b5b612e548254612ab1565b612e5f828285612d9b565b600060209050601f831160018114612e925760008415612e80578287015190505b612e8a8582612e0c565b865550612ef2565b601f198416612ea086612c7c565b60005b82811015612ec857848901518255600182019150602085019450602081019050612ea3565b86831015612ee55784890151612ee1601f891682612dee565b8355505b6001600288020188555050505b505050505050565b6000612f058261239c565b9150612f108361239c565b9250828203905081811115612f2857612f276129a8565b5b92915050565b7f506c65617365207375626d6974207468652061736b696e67207072696365206960008201527f6e206f7264657220746f20636f6d70656c65746520746865206d61726b657400602082015250565b6000612f8a603f83612ae2565b9150612f9582612f2e565b604082019050919050565b60006020820190508181036000830152612fb981612f7d565b9050919050565b7f5072696365206d75737420657175616c20746f206c697374696e67207072696360008201527f6500000000000000000000000000000000000000000000000000000000000000602082015250565b600061301c602183612ae2565b915061302782612fc0565b604082019050919050565b6000602082019050818103600083015261304b8161300f565b9050919050565b7f5265656e7472616e637947756172643a207265656e7472616e742063616c6c00600082015250565b6000613088601f83612ae2565b915061309382613052565b602082019050919050565b600060208201905081810360008301526130b78161307b565b9050919050565b7f436f756e7465723a2064656372656d656e74206f766572666c6f770000000000600082015250565b60006130f4601b83612ae2565b91506130ff826130be565b602082019050919050565b60006020820190508181036000830152613123816130e7565b905091905056fe437265617465206e657720746f6b656e20616e64206c697374696e6720746f20746865206d61726b6574706c61636543616e63656c20746f6b656e2074686174206c697374696e67206f6e206d61726b6574706c616365a2646970667358221220b87560dc88bb3affdd2525271a75fe52492de028f78e87d9966e9e758077517f64736f6c63430008120033",
  "linkReferences": {},
  "deployedLinkReferences": {}
}