{
  "_format": "hh-sol-artifact-1",
  "contractName": "NFTMarketplace",
  "sourceName": "contracts/marketContract.sol",
  "abi": [
    {
      "inputs": [],
      "stateMutability": "nonpayable",
      "type": "constructor"
    },
    {
      "anonymous": false,
      "inputs": [
        {
          "indexed": true,
          "internalType": "address",
          "name": "owner",
          "type": "address"
        },
        {
          "indexed": true,
          "internalType": "address",
          "name": "approved",
          "type": "address"
        },
        {
          "indexed": true,
          "internalType": "uint256",
          "name": "tokenId",
          "type": "uint256"
        }
      ],
      "name": "Approval",
      "type": "event"
    },
    {
      "anonymous": false,
      "inputs": [
        {
          "indexed": true,
          "internalType": "address",
          "name": "owner",
          "type": "address"
        },
        {
          "indexed": true,
          "internalType": "address",
          "name": "operator",
          "type": "address"
        },
        {
          "indexed": false,
          "internalType": "bool",
          "name": "approved",
          "type": "bool"
        }
      ],
      "name": "ApprovalForAll",
      "type": "event"
    },
    {
      "anonymous": false,
      "inputs": [
        {
          "indexed": false,
          "internalType": "uint256",
          "name": "_fromTokenId",
          "type": "uint256"
        },
        {
          "indexed": false,
          "internalType": "uint256",
          "name": "_toTokenId",
          "type": "uint256"
        }
      ],
      "name": "BatchMetadataUpdate",
      "type": "event"
    },
    {
      "anonymous": false,
      "inputs": [
        {
          "indexed": false,
          "internalType": "uint256",
          "name": "_tokenId",
          "type": "uint256"
        }
      ],
      "name": "MetadataUpdate",
      "type": "event"
    },
    {
      "anonymous": false,
      "inputs": [
        {
          "indexed": false,
          "internalType": "uint256",
          "name": "tokenID",
          "type": "uint256"
        },
        {
          "indexed": false,
          "internalType": "address",
          "name": "from",
          "type": "address"
        },
        {
          "indexed": false,
          "internalType": "address",
          "name": "to",
          "type": "address"
        },
        {
          "indexed": false,
          "internalType": "string",
          "name": "tokenURI",
          "type": "string"
        },
        {
          "indexed": false,
          "internalType": "uint256",
          "name": "price",
          "type": "uint256"
        }
      ],
      "name": "NFTTransfer",
      "type": "event"
    },
    {
      "anonymous": false,
      "inputs": [
        {
          "indexed": true,
          "internalType": "address",
          "name": "previousOwner",
          "type": "address"
        },
        {
          "indexed": true,
          "internalType": "address",
          "name": "newOwner",
          "type": "address"
        }
      ],
      "name": "OwnershipTransferred",
      "type": "event"
    },
    {
      "anonymous": false,
      "inputs": [
        {
          "indexed": true,
          "internalType": "address",
          "name": "from",
          "type": "address"
        },
        {
          "indexed": true,
          "internalType": "address",
          "name": "to",
          "type": "address"
        },
        {
          "indexed": true,
          "internalType": "uint256",
          "name": "tokenId",
          "type": "uint256"
        }
      ],
      "name": "Transfer",
      "type": "event"
    },
    {
      "inputs": [
        {
          "internalType": "address",
          "name": "to",
          "type": "address"
        },
        {
          "internalType": "uint256",
          "name": "tokenId",
          "type": "uint256"
        }
      ],
      "name": "approve",
      "outputs": [],
      "stateMutability": "nonpayable",
      "type": "function"
    },
    {
      "inputs": [
        {
          "internalType": "address",
          "name": "owner",
          "type": "address"
        }
      ],
      "name": "balanceOf",
      "outputs": [
        {
          "internalType": "uint256",
          "name": "",
          "type": "uint256"
        }
      ],
      "stateMutability": "view",
      "type": "function"
    },
    {
      "inputs": [
        {
          "internalType": "uint256",
          "name": "tokenID",
          "type": "uint256"
        }
      ],
      "name": "buyNFT",
      "outputs": [],
      "stateMutability": "payable",
      "type": "function"
    },
    {
      "inputs": [
        {
          "internalType": "uint256",
          "name": "tokenID",
          "type": "uint256"
        }
      ],
      "name": "cancelListing",
      "outputs": [],
      "stateMutability": "nonpayable",
      "type": "function"
    },
    {
      "inputs": [
        {
          "internalType": "string",
          "name": "tokenURI",
          "type": "string"
        }
      ],
      "name": "createNFT",
      "outputs": [],
      "stateMutability": "nonpayable",
      "type": "function"
    },
    {
      "inputs": [
        {
          "internalType": "uint256",
          "name": "tokenId",
          "type": "uint256"
        }
      ],
      "name": "getApproved",
      "outputs": [
        {
          "internalType": "address",
          "name": "",
          "type": "address"
        }
      ],
      "stateMutability": "view",
      "type": "function"
    },
    {
      "inputs": [
        {
          "internalType": "address",
          "name": "owner",
          "type": "address"
        },
        {
          "internalType": "address",
          "name": "operator",
          "type": "address"
        }
      ],
      "name": "isApprovedForAll",
      "outputs": [
        {
          "internalType": "bool",
          "name": "",
          "type": "bool"
        }
      ],
      "stateMutability": "view",
      "type": "function"
    },
    {
      "inputs": [
        {
          "internalType": "uint256",
          "name": "tokenID",
          "type": "uint256"
        },
        {
          "internalType": "uint256",
          "name": "price",
          "type": "uint256"
        }
      ],
      "name": "listNFT",
      "outputs": [],
      "stateMutability": "nonpayable",
      "type": "function"
    },
    {
      "inputs": [],
      "name": "name",
      "outputs": [
        {
          "internalType": "string",
          "name": "",
          "type": "string"
        }
      ],
      "stateMutability": "view",
      "type": "function"
    },
    {
      "inputs": [],
      "name": "owner",
      "outputs": [
        {
          "internalType": "address",
          "name": "",
          "type": "address"
        }
      ],
      "stateMutability": "view",
      "type": "function"
    },
    {
      "inputs": [
        {
          "internalType": "uint256",
          "name": "tokenId",
          "type": "uint256"
        }
      ],
      "name": "ownerOf",
      "outputs": [
        {
          "internalType": "address",
          "name": "",
          "type": "address"
        }
      ],
      "stateMutability": "view",
      "type": "function"
    },
    {
      "inputs": [],
      "name": "renounceOwnership",
      "outputs": [],
      "stateMutability": "nonpayable",
      "type": "function"
    },
    {
      "inputs": [
        {
          "internalType": "address",
          "name": "from",
          "type": "address"
        },
        {
          "internalType": "address",
          "name": "to",
          "type": "address"
        },
        {
          "internalType": "uint256",
          "name": "tokenId",
          "type": "uint256"
        }
      ],
      "name": "safeTransferFrom",
      "outputs": [],
      "stateMutability": "nonpayable",
      "type": "function"
    },
    {
      "inputs": [
        {
          "internalType": "address",
          "name": "from",
          "type": "address"
        },
        {
          "internalType": "address",
          "name": "to",
          "type": "address"
        },
        {
          "internalType": "uint256",
          "name": "tokenId",
          "type": "uint256"
        },
        {
          "internalType": "bytes",
          "name": "data",
          "type": "bytes"
        }
      ],
      "name": "safeTransferFrom",
      "outputs": [],
      "stateMutability": "nonpayable",
      "type": "function"
    },
    {
      "inputs": [
        {
          "internalType": "address",
          "name": "operator",
          "type": "address"
        },
        {
          "internalType": "bool",
          "name": "approved",
          "type": "bool"
        }
      ],
      "name": "setApprovalForAll",
      "outputs": [],
      "stateMutability": "nonpayable",
      "type": "function"
    },
    {
      "inputs": [
        {
          "internalType": "bytes4",
          "name": "interfaceId",
          "type": "bytes4"
        }
      ],
      "name": "supportsInterface",
      "outputs": [
        {
          "internalType": "bool",
          "name": "",
          "type": "bool"
        }
      ],
      "stateMutability": "view",
      "type": "function"
    },
    {
      "inputs": [],
      "name": "symbol",
      "outputs": [
        {
          "internalType": "string",
          "name": "",
          "type": "string"
        }
      ],
      "stateMutability": "view",
      "type": "function"
    },
    {
      "inputs": [
        {
          "internalType": "uint256",
          "name": "tokenId",
          "type": "uint256"
        }
      ],
      "name": "tokenURI",
      "outputs": [
        {
          "internalType": "string",
          "name": "",
          "type": "string"
        }
      ],
      "stateMutability": "view",
      "type": "function"
    },
    {
      "inputs": [
        {
          "internalType": "address",
          "name": "from",
          "type": "address"
        },
        {
          "internalType": "address",
          "name": "to",
          "type": "address"
        },
        {
          "internalType": "uint256",
          "name": "tokenId",
          "type": "uint256"
        }
      ],
      "name": "transferFrom",
      "outputs": [],
      "stateMutability": "nonpayable",
      "type": "function"
    },
    {
      "inputs": [
        {
          "internalType": "address",
          "name": "newOwner",
          "type": "address"
        }
      ],
      "name": "transferOwnership",
      "outputs": [],
      "stateMutability": "nonpayable",
      "type": "function"
    },
    {
      "inputs": [],
      "name": "withdrawFunds",
      "outputs": [],
      "stateMutability": "nonpayable",
      "type": "function"
    }
  ],
  "bytecode": "0x60806040523480156200001157600080fd5b506040518060400160405280600581526020017f4d794e46540000000000000000000000000000000000000000000000000000008152506040518060400160405280600381526020017f4e46540000000000000000000000000000000000000000000000000000000000815250816000908051906020019062000096929190620001a6565b508060019080519060200190620000af929190620001a6565b505050620000d2620000c6620000d860201b60201c565b620000e060201b60201c565b620002bb565b600033905090565b6000600760009054906101000a900473ffffffffffffffffffffffffffffffffffffffff16905081600760006101000a81548173ffffffffffffffffffffffffffffffffffffffff021916908373ffffffffffffffffffffffffffffffffffffffff1602179055508173ffffffffffffffffffffffffffffffffffffffff168173ffffffffffffffffffffffffffffffffffffffff167f8be0079c531659141344cd1fd0a4f28419497f9722a3daafe3b4186f6b6457e060405160405180910390a35050565b828054620001b49062000256565b90600052602060002090601f016020900481019282620001d8576000855562000224565b82601f10620001f357805160ff191683800117855562000224565b8280016001018555821562000224579182015b828111156200022357825182559160200191906001019062000206565b5b50905062000233919062000237565b5090565b5b808211156200025257600081600090555060010162000238565b5090565b600060028204905060018216806200026f57607f821691505b602082108114156200028657620002856200028c565b5b50919050565b7f4e487b7100000000000000000000000000000000000000000000000000000000600052602260045260246000fd5b61384080620002cb6000396000f3fe60806040526004361061012a5760003560e01c806370a08231116100ab578063a22cb4651161006f578063a22cb465146103bb578063b88d4fde146103e4578063c87b56dd1461040d578063da2ed03e1461044a578063e985e9c514610473578063f2fde38b146104b05761012a565b806370a08231146102e8578063715018a6146103255780638da5cb5b1461033c57806394383f141461036757806395d89b41146103905761012a565b806324600fc3116100f257806324600fc314610226578063305a67a81461023d57806342842e0e1461026657806351ed82881461028f5780636352211e146102ab5761012a565b806301ffc9a71461012f57806306fdde031461016c578063081812fc14610197578063095ea7b3146101d457806323b872dd146101fd575b600080fd5b34801561013b57600080fd5b5061015660048036038101906101519190612897565b6104d9565b60405161016391906131dd565b60405180910390f35b34801561017857600080fd5b5061018161053a565b60405161018e91906131f8565b60405180910390f35b3480156101a357600080fd5b506101be60048036038101906101b9919061292e565b6105cc565b6040516101cb919061313f565b60405180910390f35b3480156101e057600080fd5b506101fb60048036038101906101f6919061285b565b610612565b005b34801561020957600080fd5b50610224600480360381019061021f9190612755565b61072a565b005b34801561023257600080fd5b5061023b61078a565b005b34801561024957600080fd5b50610264600480360381019061025f919061292e565b610824565b005b34801561027257600080fd5b5061028d60048036038101906102889190612755565b610a19565b005b6102a960048036038101906102a4919061292e565b610a39565b005b3480156102b757600080fd5b506102d260048036038101906102cd919061292e565b610b9e565b6040516102df919061313f565b60405180910390f35b3480156102f457600080fd5b5061030f600480360381019061030a91906126f0565b610c25565b60405161031c919061347a565b60405180910390f35b34801561033157600080fd5b5061033a610cdd565b005b34801561034857600080fd5b50610351610cf1565b60405161035e919061313f565b60405180910390f35b34801561037357600080fd5b5061038e60048036038101906103899190612957565b610d1b565b005b34801561039c57600080fd5b506103a5610e3c565b6040516103b291906131f8565b60405180910390f35b3480156103c757600080fd5b506103e260048036038101906103dd919061281f565b610ece565b005b3480156103f057600080fd5b5061040b600480360381019061040691906127a4565b610ee4565b005b34801561041957600080fd5b50610434600480360381019061042f919061292e565b610f46565b60405161044191906131f8565b60405180910390f35b34801561045657600080fd5b50610471600480360381019061046c91906128e9565b611059565b005b34801561047f57600080fd5b5061049a60048036038101906104959190612719565b611111565b6040516104a791906131dd565b60405180910390f35b3480156104bc57600080fd5b506104d760048036038101906104d291906126f0565b6111a5565b005b6000634906490660e01b7bffffffffffffffffffffffffffffffffffffffffffffffffffffffff1916827bffffffffffffffffffffffffffffffffffffffffffffffffffffffff19161480610533575061053282611229565b5b9050919050565b6060600080546105499061370d565b80601f01602080910402602001604051908101604052809291908181526020018280546105759061370d565b80156105c25780601f10610597576101008083540402835291602001916105c2565b820191906000526020600020905b8154815290600101906020018083116105a557829003601f168201915b5050505050905090565b60006105d78261130b565b6004600083815260200190815260200160002060009054906101000a900473ffffffffffffffffffffffffffffffffffffffff169050919050565b600061061d82610b9e565b90508073ffffffffffffffffffffffffffffffffffffffff168373ffffffffffffffffffffffffffffffffffffffff16141561068e576040517f08c379a0000000000000000000000000000000000000000000000000000000008152600401610685906133fa565b60405180910390fd5b8073ffffffffffffffffffffffffffffffffffffffff166106ad611356565b73ffffffffffffffffffffffffffffffffffffffff1614806106dc57506106db816106d6611356565b611111565b5b61071b576040517f08c379a00000000000000000000000000000000000000000000000000000000081526004016107129061343a565b60405180910390fd5b610725838361135e565b505050565b61073b610735611356565b82611417565b61077a576040517f08c379a00000000000000000000000000000000000000000000000000000000081526004016107719061321a565b60405180910390fd5b6107858383836114ac565b505050565b6107926117a6565b6000479050600081116107da576040517f08c379a00000000000000000000000000000000000000000000000000000000081526004016107d19061333a565b60405180910390fd5b3373ffffffffffffffffffffffffffffffffffffffff166108fc829081150290604051600060405180830381858888f19350505050158015610820573d6000803e3d6000fd5b5050565b600060096000838152602001908152602001600020604051806040016040529081600082015481526020016001820160009054906101000a900473ffffffffffffffffffffffffffffffffffffffff1673ffffffffffffffffffffffffffffffffffffffff1673ffffffffffffffffffffffffffffffffffffffff1681525050905060008160000151116108ed576040517f08c379a00000000000000000000000000000000000000000000000000000000081526004016108e4906132da565b60405180910390fd5b3373ffffffffffffffffffffffffffffffffffffffff16816020015173ffffffffffffffffffffffffffffffffffffffff161461095f576040517f08c379a00000000000000000000000000000000000000000000000000000000081526004016109569061341a565b60405180910390fd5b3073ffffffffffffffffffffffffffffffffffffffff166323b872dd3033856040518463ffffffff1660e01b815260040161099c9392919061315a565b600060405180830381600087803b1580156109b657600080fd5b505af11580156109ca573d6000803e3d6000fd5b505050506109d782611824565b7f705332a8918666802fc1504f63ff1f002a5f6cedd30d59ad7ae0b5281aeb8dca8230336000604051610a0d94939291906134f1565b60405180910390a15050565b610a3483838360405180602001604052806000815250610ee4565b505050565b600060096000838152602001908152602001600020604051806040016040529081600082015481526020016001820160009054906101000a900473ffffffffffffffffffffffffffffffffffffffff1673ffffffffffffffffffffffffffffffffffffffff1673ffffffffffffffffffffffffffffffffffffffff168152505090506000816000015111610b02576040517f08c379a0000000000000000000000000000000000000000000000000000000008152600401610af9906132da565b60405180910390fd5b80600001513414610b48576040517f08c379a0000000000000000000000000000000000000000000000000000000008152600401610b3f9061345a565b60405180910390fd5b610b5330338461072a565b610b5c82611824565b7f705332a8918666802fc1504f63ff1f002a5f6cedd30d59ad7ae0b5281aeb8dca8230336000604051610b9294939291906134f1565b60405180910390a15050565b600080610baa83611899565b9050600073ffffffffffffffffffffffffffffffffffffffff168173ffffffffffffffffffffffffffffffffffffffff161415610c1c576040517f08c379a0000000000000000000000000000000000000000000000000000000008152600401610c13906133da565b60405180910390fd5b80915050919050565b60008073ffffffffffffffffffffffffffffffffffffffff168273ffffffffffffffffffffffffffffffffffffffff161415610c96576040517f08c379a0000000000000000000000000000000000000000000000000000000008152600401610c8d9061335a565b60405180910390fd5b600360008373ffffffffffffffffffffffffffffffffffffffff1673ffffffffffffffffffffffffffffffffffffffff168152602001908152602001600020549050919050565b610ce56117a6565b610cef60006118d6565b565b6000600760009054906101000a900473ffffffffffffffffffffffffffffffffffffffff16905090565b60008111610d5e576040517f08c379a0000000000000000000000000000000000000000000000000000000008152600401610d559061323a565b60405180910390fd5b610d6933308461072a565b60405180604001604052808281526020013373ffffffffffffffffffffffffffffffffffffffff16815250600960008481526020019081526020016000206000820151816000015560208201518160010160006101000a81548173ffffffffffffffffffffffffffffffffffffffff021916908373ffffffffffffffffffffffffffffffffffffffff1602179055509050507f705332a8918666802fc1504f63ff1f002a5f6cedd30d59ad7ae0b5281aeb8dca82333084604051610e309493929190613549565b60405180910390a15050565b606060018054610e4b9061370d565b80601f0160208091040260200160405190810160405280929190818152602001828054610e779061370d565b8015610ec45780601f10610e9957610100808354040283529160200191610ec4565b820191906000526020600020905b815481529060010190602001808311610ea757829003601f168201915b5050505050905090565b610ee0610ed9611356565b838361199c565b5050565b610ef5610eef611356565b83611417565b610f34576040517f08c379a0000000000000000000000000000000000000000000000000000000008152600401610f2b9061321a565b60405180910390fd5b610f4084848484611b09565b50505050565b6060610f518261130b565b6000600660008481526020019081526020016000208054610f719061370d565b80601f0160208091040260200160405190810160405280929190818152602001828054610f9d9061370d565b8015610fea5780601f10610fbf57610100808354040283529160200191610fea565b820191906000526020600020905b815481529060010190602001808311610fcd57829003601f168201915b505050505090506000610ffb611b65565b9050600081511415611011578192505050611054565b60008251111561104657808260405160200161102e92919061311b565b60405160208183030381529060405292505050611054565b61104f84611b7c565b925050505b919050565b6110636008611be4565b600061106f6008611bfa565b905061107b3382611c08565b6110c98184848080601f016020809104026020016040519081016040528093929190818152602001838380828437600081840152601f19601f82011690508083019250505050505050611c26565b7f705332a8918666802fc1504f63ff1f002a5f6cedd30d59ad7ae0b5281aeb8dca816000338686600060405161110496959493929190613495565b60405180910390a1505050565b6000600560008473ffffffffffffffffffffffffffffffffffffffff1673ffffffffffffffffffffffffffffffffffffffff16815260200190815260200160002060008373ffffffffffffffffffffffffffffffffffffffff1673ffffffffffffffffffffffffffffffffffffffff16815260200190815260200160002060009054906101000a900460ff16905092915050565b6111ad6117a6565b600073ffffffffffffffffffffffffffffffffffffffff168173ffffffffffffffffffffffffffffffffffffffff16141561121d576040517f08c379a00000000000000000000000000000000000000000000000000000000081526004016112149061327a565b60405180910390fd5b611226816118d6565b50565b60007f80ac58cd000000000000000000000000000000000000000000000000000000007bffffffffffffffffffffffffffffffffffffffffffffffffffffffff1916827bffffffffffffffffffffffffffffffffffffffffffffffffffffffff191614806112f457507f5b5e139f000000000000000000000000000000000000000000000000000000007bffffffffffffffffffffffffffffffffffffffffffffffffffffffff1916827bffffffffffffffffffffffffffffffffffffffffffffffffffffffff1916145b80611304575061130382611cd1565b5b9050919050565b61131481611d3b565b611353576040517f08c379a000000000000000000000000000000000000000000000000000000000815260040161134a906133da565b60405180910390fd5b50565b600033905090565b816004600083815260200190815260200160002060006101000a81548173ffffffffffffffffffffffffffffffffffffffff021916908373ffffffffffffffffffffffffffffffffffffffff160217905550808273ffffffffffffffffffffffffffffffffffffffff166113d183610b9e565b73ffffffffffffffffffffffffffffffffffffffff167f8c5be1e5ebec7d5bd14f71427d1e84f3dd0314c0f7b2291e5b200ac8c7c3b92560405160405180910390a45050565b60008061142383610b9e565b90508073ffffffffffffffffffffffffffffffffffffffff168473ffffffffffffffffffffffffffffffffffffffff16148061146557506114648185611111565b5b806114a357508373ffffffffffffffffffffffffffffffffffffffff1661148b846105cc565b73ffffffffffffffffffffffffffffffffffffffff16145b91505092915050565b8273ffffffffffffffffffffffffffffffffffffffff166114cc82610b9e565b73ffffffffffffffffffffffffffffffffffffffff1614611522576040517f08c379a00000000000000000000000000000000000000000000000000000000081526004016115199061329a565b60405180910390fd5b600073ffffffffffffffffffffffffffffffffffffffff168273ffffffffffffffffffffffffffffffffffffffff161415611592576040517f08c379a0000000000000000000000000000000000000000000000000000000008152600401611589906132fa565b60405180910390fd5b61159f8383836001611d7c565b8273ffffffffffffffffffffffffffffffffffffffff166115bf82610b9e565b73ffffffffffffffffffffffffffffffffffffffff1614611615576040517f08c379a000000000000000000000000000000000000000000000000000000000815260040161160c9061329a565b60405180910390fd5b6004600082815260200190815260200160002060006101000a81549073ffffffffffffffffffffffffffffffffffffffff02191690556001600360008573ffffffffffffffffffffffffffffffffffffffff1673ffffffffffffffffffffffffffffffffffffffff168152602001908152602001600020600082825403925050819055506001600360008473ffffffffffffffffffffffffffffffffffffffff1673ffffffffffffffffffffffffffffffffffffffff16815260200190815260200160002060008282540192505081905550816002600083815260200190815260200160002060006101000a81548173ffffffffffffffffffffffffffffffffffffffff021916908373ffffffffffffffffffffffffffffffffffffffff160217905550808273ffffffffffffffffffffffffffffffffffffffff168473ffffffffffffffffffffffffffffffffffffffff167fddf252ad1be2c89b69c2b068fc378daa952ba7f163c4a11628f55a4df523b3ef60405160405180910390a46117a18383836001611d82565b505050565b6117ae611356565b73ffffffffffffffffffffffffffffffffffffffff166117cc610cf1565b73ffffffffffffffffffffffffffffffffffffffff1614611822576040517f08c379a0000000000000000000000000000000000000000000000000000000008152600401611819906133ba565b60405180910390fd5b565b6000600960008381526020019081526020016000206000018190555060006009600083815260200190815260200160002060010160006101000a81548173ffffffffffffffffffffffffffffffffffffffff021916908373ffffffffffffffffffffffffffffffffffffffff16021790555050565b60006002600083815260200190815260200160002060009054906101000a900473ffffffffffffffffffffffffffffffffffffffff169050919050565b6000600760009054906101000a900473ffffffffffffffffffffffffffffffffffffffff16905081600760006101000a81548173ffffffffffffffffffffffffffffffffffffffff021916908373ffffffffffffffffffffffffffffffffffffffff1602179055508173ffffffffffffffffffffffffffffffffffffffff168173ffffffffffffffffffffffffffffffffffffffff167f8be0079c531659141344cd1fd0a4f28419497f9722a3daafe3b4186f6b6457e060405160405180910390a35050565b8173ffffffffffffffffffffffffffffffffffffffff168373ffffffffffffffffffffffffffffffffffffffff161415611a0b576040517f08c379a0000000000000000000000000000000000000000000000000000000008152600401611a029061331a565b60405180910390fd5b80600560008573ffffffffffffffffffffffffffffffffffffffff1673ffffffffffffffffffffffffffffffffffffffff16815260200190815260200160002060008473ffffffffffffffffffffffffffffffffffffffff1673ffffffffffffffffffffffffffffffffffffffff16815260200190815260200160002060006101000a81548160ff0219169083151502179055508173ffffffffffffffffffffffffffffffffffffffff168373ffffffffffffffffffffffffffffffffffffffff167f17307eab39ab6107e8899845ad3d59bd9653f200f220920489ca2b5937696c3183604051611afc91906131dd565b60405180910390a3505050565b611b148484846114ac565b611b2084848484611d88565b611b5f576040517f08c379a0000000000000000000000000000000000000000000000000000000008152600401611b569061325a565b60405180910390fd5b50505050565b606060405180602001604052806000815250905090565b6060611b878261130b565b6000611b91611b65565b90506000815111611bb15760405180602001604052806000815250611bdc565b80611bbb84611f1f565b604051602001611bcc92919061311b565b6040516020818303038152906040525b915050919050565b6001816000016000828254019250508190555050565b600081600001549050919050565b611c22828260405180602001604052806000815250612043565b5050565b611c2f82611d3b565b611c6e576040517f08c379a0000000000000000000000000000000000000000000000000000000008152600401611c659061337a565b60405180910390fd5b80600660008481526020019081526020016000209080519060200190611c95929190612532565b507ff8e1a15aba9398e019f0b49df1a4fde98ee17ae345cb5f6b5e2c27f5033e8ce782604051611cc5919061347a565b60405180910390a15050565b60007f01ffc9a7000000000000000000000000000000000000000000000000000000007bffffffffffffffffffffffffffffffffffffffffffffffffffffffff1916827bffffffffffffffffffffffffffffffffffffffffffffffffffffffff1916149050919050565b60008073ffffffffffffffffffffffffffffffffffffffff16611d5d83611899565b73ffffffffffffffffffffffffffffffffffffffff1614159050919050565b50505050565b50505050565b6000611da98473ffffffffffffffffffffffffffffffffffffffff1661209e565b15611f12578373ffffffffffffffffffffffffffffffffffffffff1663150b7a02611dd2611356565b8786866040518563ffffffff1660e01b8152600401611df49493929190613191565b602060405180830381600087803b158015611e0e57600080fd5b505af1925050508015611e3f57506040513d601f19601f82011682018060405250810190611e3c91906128c0565b60015b611ec2573d8060008114611e6f576040519150601f19603f3d011682016040523d82523d6000602084013e611e74565b606091505b50600081511415611eba576040517f08c379a0000000000000000000000000000000000000000000000000000000008152600401611eb19061325a565b60405180910390fd5b805181602001fd5b63150b7a0260e01b7bffffffffffffffffffffffffffffffffffffffffffffffffffffffff1916817bffffffffffffffffffffffffffffffffffffffffffffffffffffffff191614915050611f17565b600190505b949350505050565b606060006001611f2e846120dd565b01905060008167ffffffffffffffff811115611f73577f4e487b7100000000000000000000000000000000000000000000000000000000600052604160045260246000fd5b6040519080825280601f01601f191660200182016040528015611fa55781602001600182028036833780820191505090505b509050600082602001820190505b600115612038578080600190039150507f3031323334353637383961626364656600000000000000000000000000000000600a86061a8153600a8581612022577f4e487b7100000000000000000000000000000000000000000000000000000000600052601260045260246000fd5b049450600085141561203357612038565b611fb3565b819350505050919050565b61204d8383612314565b61205a6000848484611d88565b612099576040517f08c379a00000000000000000000000000000000000000000000000000000000081526004016120909061325a565b60405180910390fd5b505050565b6000808273ffffffffffffffffffffffffffffffffffffffff16803b806020016040519081016040528181526000908060200190933c51119050919050565b600080600090507a184f03e93ff9f4daa797ed6e38ed64bf6a1f0100000000000000008310612161577a184f03e93ff9f4daa797ed6e38ed64bf6a1f0100000000000000008381612157577f4e487b7100000000000000000000000000000000000000000000000000000000600052601260045260246000fd5b0492506040810190505b6d04ee2d6d415b85acef810000000083106121c4576d04ee2d6d415b85acef810000000083816121ba577f4e487b7100000000000000000000000000000000000000000000000000000000600052601260045260246000fd5b0492506020810190505b662386f26fc10000831061221957662386f26fc10000838161220f577f4e487b7100000000000000000000000000000000000000000000000000000000600052601260045260246000fd5b0492506010810190505b6305f5e1008310612268576305f5e100838161225e577f4e487b7100000000000000000000000000000000000000000000000000000000600052601260045260246000fd5b0492506008810190505b61271083106122b35761271083816122a9577f4e487b7100000000000000000000000000000000000000000000000000000000600052601260045260246000fd5b0492506004810190505b606483106122fc57606483816122f2577f4e487b7100000000000000000000000000000000000000000000000000000000600052601260045260246000fd5b0492506002810190505b600a831061230b576001810190505b80915050919050565b600073ffffffffffffffffffffffffffffffffffffffff168273ffffffffffffffffffffffffffffffffffffffff161415612384576040517f08c379a000000000000000000000000000000000000000000000000000000000815260040161237b9061339a565b60405180910390fd5b61238d81611d3b565b156123cd576040517f08c379a00000000000000000000000000000000000000000000000000000000081526004016123c4906132ba565b60405180910390fd5b6123db600083836001611d7c565b6123e481611d3b565b15612424576040517f08c379a000000000000000000000000000000000000000000000000000000000815260040161241b906132ba565b60405180910390fd5b6001600360008473ffffffffffffffffffffffffffffffffffffffff1673ffffffffffffffffffffffffffffffffffffffff16815260200190815260200160002060008282540192505081905550816002600083815260200190815260200160002060006101000a81548173ffffffffffffffffffffffffffffffffffffffff021916908373ffffffffffffffffffffffffffffffffffffffff160217905550808273ffffffffffffffffffffffffffffffffffffffff16600073ffffffffffffffffffffffffffffffffffffffff167fddf252ad1be2c89b69c2b068fc378daa952ba7f163c4a11628f55a4df523b3ef60405160405180910390a461252e600083836001611d82565b5050565b82805461253e9061370d565b90600052602060002090601f01602090048101928261256057600085556125a7565b82601f1061257957805160ff19168380011785556125a7565b828001600101855582156125a7579182015b828111156125a657825182559160200191906001019061258b565b5b5090506125b491906125b8565b5090565b5b808211156125d15760008160009055506001016125b9565b5090565b60006125e86125e3846135d2565b6135a1565b90508281526020810184848401111561260057600080fd5b61260b8482856136cb565b509392505050565b600081359050612622816137ae565b92915050565b600081359050612637816137c5565b92915050565b60008135905061264c816137dc565b92915050565b600081519050612661816137dc565b92915050565b600082601f83011261267857600080fd5b81356126888482602086016125d5565b91505092915050565b60008083601f8401126126a357600080fd5b8235905067ffffffffffffffff8111156126bc57600080fd5b6020830191508360018202830111156126d457600080fd5b9250929050565b6000813590506126ea816137f3565b92915050565b60006020828403121561270257600080fd5b600061271084828501612613565b91505092915050565b6000806040838503121561272c57600080fd5b600061273a85828601612613565b925050602061274b85828601612613565b9150509250929050565b60008060006060848603121561276a57600080fd5b600061277886828701612613565b935050602061278986828701612613565b925050604061279a868287016126db565b9150509250925092565b600080600080608085870312156127ba57600080fd5b60006127c887828801612613565b94505060206127d987828801612613565b93505060406127ea878288016126db565b925050606085013567ffffffffffffffff81111561280757600080fd5b61281387828801612667565b91505092959194509250565b6000806040838503121561283257600080fd5b600061284085828601612613565b925050602061285185828601612628565b9150509250929050565b6000806040838503121561286e57600080fd5b600061287c85828601612613565b925050602061288d858286016126db565b9150509250929050565b6000602082840312156128a957600080fd5b60006128b78482850161263d565b91505092915050565b6000602082840312156128d257600080fd5b60006128e084828501612652565b91505092915050565b600080602083850312156128fc57600080fd5b600083013567ffffffffffffffff81111561291657600080fd5b61292285828601612691565b92509250509250929050565b60006020828403121561294057600080fd5b600061294e848285016126db565b91505092915050565b6000806040838503121561296a57600080fd5b6000612978858286016126db565b9250506020612989858286016126db565b9150509250929050565b61299c81613645565b82525050565b6129ab81613657565b82525050565b60006129bc82613602565b6129c68185613618565b93506129d68185602086016136da565b6129df8161379d565b840191505092915050565b6129f3816136b9565b82525050565b6000612a058385613629565b9350612a128385846136cb565b612a1b8361379d565b840190509392505050565b6000612a318261360d565b612a3b8185613629565b9350612a4b8185602086016136da565b612a548161379d565b840191505092915050565b6000612a6a8261360d565b612a74818561363a565b9350612a848185602086016136da565b80840191505092915050565b6000612a9d602d83613629565b91507f4552433732313a2063616c6c6572206973206e6f7420746f6b656e206f776e6560008301527f72206f7220617070726f766564000000000000000000000000000000000000006020830152604082019050919050565b6000612b03602783613629565b91507f4e46544d61726b65743a207072696365206d757374206265206772656174657260008301527f207468616e2030000000000000000000000000000000000000000000000000006020830152604082019050919050565b6000612b69603283613629565b91507f4552433732313a207472616e7366657220746f206e6f6e20455243373231526560008301527f63656976657220696d706c656d656e74657200000000000000000000000000006020830152604082019050919050565b6000612bcf602683613629565b91507f4f776e61626c653a206e6577206f776e657220697320746865207a65726f206160008301527f64647265737300000000000000000000000000000000000000000000000000006020830152604082019050919050565b6000612c35602583613629565b91507f4552433732313a207472616e736665722066726f6d20696e636f72726563742060008301527f6f776e65720000000000000000000000000000000000000000000000000000006020830152604082019050919050565b6000612c9b601c83613629565b91507f4552433732313a20746f6b656e20616c7265616479206d696e746564000000006000830152602082019050919050565b6000612cdb602283613629565b91507f4e46544d61726b65743a206e6674206e6f74206c697374656420666f7220736160008301527f6c650000000000000000000000000000000000000000000000000000000000006020830152604082019050919050565b6000612d41602483613629565b91507f4552433732313a207472616e7366657220746f20746865207a65726f2061646460008301527f72657373000000000000000000000000000000000000000000000000000000006020830152604082019050919050565b6000612da7601983613629565b91507f4552433732313a20617070726f766520746f2063616c6c6572000000000000006000830152602082019050919050565b6000612de7601a83613629565b91507f4e46544d61726b65743a2062616c616e6365206973207a65726f0000000000006000830152602082019050919050565b6000612e27602983613629565b91507f4552433732313a2061646472657373207a65726f206973206e6f74206120766160008301527f6c6964206f776e657200000000000000000000000000000000000000000000006020830152604082019050919050565b6000612e8d602e83613629565b91507f45524337323155524953746f726167653a2055524920736574206f66206e6f6e60008301527f6578697374656e7420746f6b656e0000000000000000000000000000000000006020830152604082019050919050565b6000612ef3602083613629565b91507f4552433732313a206d696e7420746f20746865207a65726f20616464726573736000830152602082019050919050565b6000612f33602083613629565b91507f4f776e61626c653a2063616c6c6572206973206e6f7420746865206f776e65726000830152602082019050919050565b6000612f73601883613629565b91507f4552433732313a20696e76616c696420746f6b656e20494400000000000000006000830152602082019050919050565b6000612fb3602183613629565b91507f4552433732313a20617070726f76616c20746f2063757272656e74206f776e6560008301527f72000000000000000000000000000000000000000000000000000000000000006020830152604082019050919050565b6000613019602083613629565b91507f4e46544d61726b65743a20796f75277265206e6f74207468652073656c6c65726000830152602082019050919050565b6000613059600083613629565b9150600082019050919050565b6000613073603d83613629565b91507f4552433732313a20617070726f76652063616c6c6572206973206e6f7420746f60008301527f6b656e206f776e6572206f7220617070726f76656420666f7220616c6c0000006020830152604082019050919050565b60006130d9601a83613629565b91507f4e46544d61726b65743a20696e636f72726563742070726963650000000000006000830152602082019050919050565b613115816136af565b82525050565b60006131278285612a5f565b91506131338284612a5f565b91508190509392505050565b60006020820190506131546000830184612993565b92915050565b600060608201905061316f6000830186612993565b61317c6020830185612993565b613189604083018461310c565b949350505050565b60006080820190506131a66000830187612993565b6131b36020830186612993565b6131c0604083018561310c565b81810360608301526131d281846129b1565b905095945050505050565b60006020820190506131f260008301846129a2565b92915050565b600060208201905081810360008301526132128184612a26565b905092915050565b6000602082019050818103600083015261323381612a90565b9050919050565b6000602082019050818103600083015261325381612af6565b9050919050565b6000602082019050818103600083015261327381612b5c565b9050919050565b6000602082019050818103600083015261329381612bc2565b9050919050565b600060208201905081810360008301526132b381612c28565b9050919050565b600060208201905081810360008301526132d381612c8e565b9050919050565b600060208201905081810360008301526132f381612cce565b9050919050565b6000602082019050818103600083015261331381612d34565b9050919050565b6000602082019050818103600083015261333381612d9a565b9050919050565b6000602082019050818103600083015261335381612dda565b9050919050565b6000602082019050818103600083015261337381612e1a565b9050919050565b6000602082019050818103600083015261339381612e80565b9050919050565b600060208201905081810360008301526133b381612ee6565b9050919050565b600060208201905081810360008301526133d381612f26565b9050919050565b600060208201905081810360008301526133f381612f66565b9050919050565b6000602082019050818103600083015261341381612fa6565b9050919050565b600060208201905081810360008301526134338161300c565b9050919050565b6000602082019050818103600083015261345381613066565b9050919050565b60006020820190508181036000830152613473816130cc565b9050919050565b600060208201905061348f600083018461310c565b92915050565b600060a0820190506134aa600083018961310c565b6134b76020830188612993565b6134c46040830187612993565b81810360608301526134d78185876129f9565b90506134e660808301846129ea565b979650505050505050565b600060a082019050613506600083018761310c565b6135136020830186612993565b6135206040830185612993565b81810360608301526135318161304c565b905061354060808301846129ea565b95945050505050565b600060a08201905061355e600083018761310c565b61356b6020830186612993565b6135786040830185612993565b81810360608301526135898161304c565b9050613598608083018461310c565b95945050505050565b6000604051905081810181811067ffffffffffffffff821117156135c8576135c761376e565b5b8060405250919050565b600067ffffffffffffffff8211156135ed576135ec61376e565b5b601f19601f8301169050602081019050919050565b600081519050919050565b600081519050919050565b600082825260208201905092915050565b600082825260208201905092915050565b600081905092915050565b60006136508261368f565b9050919050565b60008115159050919050565b60007fffffffff0000000000000000000000000000000000000000000000000000000082169050919050565b600073ffffffffffffffffffffffffffffffffffffffff82169050919050565b6000819050919050565b60006136c4826136af565b9050919050565b82818337600083830152505050565b60005b838110156136f85780820151818401526020810190506136dd565b83811115613707576000848401525b50505050565b6000600282049050600182168061372557607f821691505b602082108114156137395761373861373f565b5b50919050565b7f4e487b7100000000000000000000000000000000000000000000000000000000600052602260045260246000fd5b7f4e487b7100000000000000000000000000000000000000000000000000000000600052604160045260246000fd5b6000601f19601f8301169050919050565b6137b781613645565b81146137c257600080fd5b50565b6137ce81613657565b81146137d957600080fd5b50565b6137e581613663565b81146137f057600080fd5b50565b6137fc816136af565b811461380757600080fd5b5056fea2646970667358221220f8fd39bc4312d6fd2b04a91762f3bcc7d27c50171f28bc650ca94311fd1fc81e64736f6c63430008000033",
  "linkReferences": {},
  "deployedLinkReferences": {}
}