{
  "_format": "hh-sol-artifact-1",
  "contractName": "NFTMarketplace",
  "sourceName": "contracts/Marketplace.sol",
  "abi": [
    {
      "inputs": [],
      "stateMutability": "nonpayable",
      "type": "constructor"
    },
    {
      "anonymous": false,
      "inputs": [
        {
          "indexed": true,
          "internalType": "address",
          "name": "owner",
          "type": "address"
        },
        {
          "indexed": true,
          "internalType": "address",
          "name": "approved",
          "type": "address"
        },
        {
          "indexed": true,
          "internalType": "uint256",
          "name": "tokenId",
          "type": "uint256"
        }
      ],
      "name": "Approval",
      "type": "event"
    },
    {
      "anonymous": false,
      "inputs": [
        {
          "indexed": true,
          "internalType": "address",
          "name": "owner",
          "type": "address"
        },
        {
          "indexed": true,
          "internalType": "address",
          "name": "operator",
          "type": "address"
        },
        {
          "indexed": false,
          "internalType": "bool",
          "name": "approved",
          "type": "bool"
        }
      ],
      "name": "ApprovalForAll",
      "type": "event"
    },
    {
      "anonymous": false,
      "inputs": [
        {
          "indexed": false,
          "internalType": "uint256",
          "name": "_fromTokenId",
          "type": "uint256"
        },
        {
          "indexed": false,
          "internalType": "uint256",
          "name": "_toTokenId",
          "type": "uint256"
        }
      ],
      "name": "BatchMetadataUpdate",
      "type": "event"
    },
    {
      "anonymous": false,
      "inputs": [
        {
          "indexed": false,
          "internalType": "uint256",
          "name": "_tokenId",
          "type": "uint256"
        }
      ],
      "name": "MetadataUpdate",
      "type": "event"
    },
    {
      "anonymous": false,
      "inputs": [
        {
          "indexed": false,
          "internalType": "uint256",
          "name": "tokenID",
          "type": "uint256"
        },
        {
          "indexed": false,
          "internalType": "address",
          "name": "from",
          "type": "address"
        },
        {
          "indexed": false,
          "internalType": "address",
          "name": "to",
          "type": "address"
        },
        {
          "indexed": false,
          "internalType": "string",
          "name": "tokenURI",
          "type": "string"
        },
        {
          "indexed": false,
          "internalType": "uint256",
          "name": "price",
          "type": "uint256"
        }
      ],
      "name": "NFTTransfer",
      "type": "event"
    },
    {
      "anonymous": false,
      "inputs": [
        {
          "indexed": true,
          "internalType": "address",
          "name": "previousOwner",
          "type": "address"
        },
        {
          "indexed": true,
          "internalType": "address",
          "name": "newOwner",
          "type": "address"
        }
      ],
      "name": "OwnershipTransferred",
      "type": "event"
    },
    {
      "anonymous": false,
      "inputs": [
        {
          "indexed": true,
          "internalType": "address",
          "name": "from",
          "type": "address"
        },
        {
          "indexed": true,
          "internalType": "address",
          "name": "to",
          "type": "address"
        },
        {
          "indexed": true,
          "internalType": "uint256",
          "name": "tokenId",
          "type": "uint256"
        }
      ],
      "name": "Transfer",
      "type": "event"
    },
    {
      "inputs": [
        {
          "internalType": "address",
          "name": "to",
          "type": "address"
        },
        {
          "internalType": "uint256",
          "name": "tokenId",
          "type": "uint256"
        }
      ],
      "name": "approve",
      "outputs": [],
      "stateMutability": "nonpayable",
      "type": "function"
    },
    {
      "inputs": [
        {
          "internalType": "address",
          "name": "owner",
          "type": "address"
        }
      ],
      "name": "balanceOf",
      "outputs": [
        {
          "internalType": "uint256",
          "name": "",
          "type": "uint256"
        }
      ],
      "stateMutability": "view",
      "type": "function"
    },
    {
      "inputs": [
        {
          "internalType": "uint256",
          "name": "tokenID",
          "type": "uint256"
        }
      ],
      "name": "buyNFT",
      "outputs": [],
      "stateMutability": "payable",
      "type": "function"
    },
    {
      "inputs": [
        {
          "internalType": "string",
          "name": "tokenURI",
          "type": "string"
        }
      ],
      "name": "createNFT",
      "outputs": [],
      "stateMutability": "nonpayable",
      "type": "function"
    },
    {
      "inputs": [
        {
          "internalType": "uint256",
          "name": "tokenId",
          "type": "uint256"
        }
      ],
      "name": "getApproved",
      "outputs": [
        {
          "internalType": "address",
          "name": "",
          "type": "address"
        }
      ],
      "stateMutability": "view",
      "type": "function"
    },
    {
      "inputs": [
        {
          "internalType": "address",
          "name": "owner",
          "type": "address"
        },
        {
          "internalType": "address",
          "name": "operator",
          "type": "address"
        }
      ],
      "name": "isApprovedForAll",
      "outputs": [
        {
          "internalType": "bool",
          "name": "",
          "type": "bool"
        }
      ],
      "stateMutability": "view",
      "type": "function"
    },
    {
      "inputs": [
        {
          "internalType": "uint256",
          "name": "tokenID",
          "type": "uint256"
        },
        {
          "internalType": "uint256",
          "name": "price",
          "type": "uint256"
        }
      ],
      "name": "listNFT",
      "outputs": [],
      "stateMutability": "nonpayable",
      "type": "function"
    },
    {
      "inputs": [],
      "name": "name",
      "outputs": [
        {
          "internalType": "string",
          "name": "",
          "type": "string"
        }
      ],
      "stateMutability": "view",
      "type": "function"
    },
    {
      "inputs": [],
      "name": "owner",
      "outputs": [
        {
          "internalType": "address",
          "name": "",
          "type": "address"
        }
      ],
      "stateMutability": "view",
      "type": "function"
    },
    {
      "inputs": [
        {
          "internalType": "uint256",
          "name": "tokenId",
          "type": "uint256"
        }
      ],
      "name": "ownerOf",
      "outputs": [
        {
          "internalType": "address",
          "name": "",
          "type": "address"
        }
      ],
      "stateMutability": "view",
      "type": "function"
    },
    {
      "inputs": [],
      "name": "renounceOwnership",
      "outputs": [],
      "stateMutability": "nonpayable",
      "type": "function"
    },
    {
      "inputs": [
        {
          "internalType": "address",
          "name": "from",
          "type": "address"
        },
        {
          "internalType": "address",
          "name": "to",
          "type": "address"
        },
        {
          "internalType": "uint256",
          "name": "tokenId",
          "type": "uint256"
        }
      ],
      "name": "safeTransferFrom",
      "outputs": [],
      "stateMutability": "nonpayable",
      "type": "function"
    },
    {
      "inputs": [
        {
          "internalType": "address",
          "name": "from",
          "type": "address"
        },
        {
          "internalType": "address",
          "name": "to",
          "type": "address"
        },
        {
          "internalType": "uint256",
          "name": "tokenId",
          "type": "uint256"
        },
        {
          "internalType": "bytes",
          "name": "data",
          "type": "bytes"
        }
      ],
      "name": "safeTransferFrom",
      "outputs": [],
      "stateMutability": "nonpayable",
      "type": "function"
    },
    {
      "inputs": [
        {
          "internalType": "address",
          "name": "operator",
          "type": "address"
        },
        {
          "internalType": "bool",
          "name": "approved",
          "type": "bool"
        }
      ],
      "name": "setApprovalForAll",
      "outputs": [],
      "stateMutability": "nonpayable",
      "type": "function"
    },
    {
      "inputs": [
        {
          "internalType": "bytes4",
          "name": "interfaceId",
          "type": "bytes4"
        }
      ],
      "name": "supportsInterface",
      "outputs": [
        {
          "internalType": "bool",
          "name": "",
          "type": "bool"
        }
      ],
      "stateMutability": "view",
      "type": "function"
    },
    {
      "inputs": [],
      "name": "symbol",
      "outputs": [
        {
          "internalType": "string",
          "name": "",
          "type": "string"
        }
      ],
      "stateMutability": "view",
      "type": "function"
    },
    {
      "inputs": [
        {
          "internalType": "uint256",
          "name": "tokenId",
          "type": "uint256"
        }
      ],
      "name": "tokenURI",
      "outputs": [
        {
          "internalType": "string",
          "name": "",
          "type": "string"
        }
      ],
      "stateMutability": "view",
      "type": "function"
    },
    {
      "inputs": [
        {
          "internalType": "address",
          "name": "from",
          "type": "address"
        },
        {
          "internalType": "address",
          "name": "to",
          "type": "address"
        },
        {
          "internalType": "uint256",
          "name": "tokenId",
          "type": "uint256"
        }
      ],
      "name": "transferFrom",
      "outputs": [],
      "stateMutability": "nonpayable",
      "type": "function"
    },
    {
      "inputs": [
        {
          "internalType": "address",
          "name": "newOwner",
          "type": "address"
        }
      ],
      "name": "transferOwnership",
      "outputs": [],
      "stateMutability": "nonpayable",
      "type": "function"
    }
  ],
  "bytecode": "0x60806040523480156200001157600080fd5b506040518060400160405280600581526020017f4d794e46540000000000000000000000000000000000000000000000000000008152506040518060400160405280600381526020017f4e46540000000000000000000000000000000000000000000000000000000000815250816000908051906020019062000096929190620001a6565b508060019080519060200190620000af929190620001a6565b505050620000d2620000c6620000d860201b60201c565b620000e060201b60201c565b620002bb565b600033905090565b6000600760009054906101000a900473ffffffffffffffffffffffffffffffffffffffff16905081600760006101000a81548173ffffffffffffffffffffffffffffffffffffffff021916908373ffffffffffffffffffffffffffffffffffffffff1602179055508173ffffffffffffffffffffffffffffffffffffffff168173ffffffffffffffffffffffffffffffffffffffff167f8be0079c531659141344cd1fd0a4f28419497f9722a3daafe3b4186f6b6457e060405160405180910390a35050565b828054620001b49062000285565b90600052602060002090601f016020900481019282620001d8576000855562000224565b82601f10620001f357805160ff191683800117855562000224565b8280016001018555821562000224579182015b828111156200022357825182559160200191906001019062000206565b5b50905062000233919062000237565b5090565b5b808211156200025257600081600090555060010162000238565b5090565b7f4e487b7100000000000000000000000000000000000000000000000000000000600052602260045260246000fd5b600060028204905060018216806200029e57607f821691505b60208210811415620002b557620002b462000256565b5b50919050565b61357780620002cb6000396000f3fe6080604052600436106101145760003560e01c8063715018a6116100a0578063b88d4fde11610064578063b88d4fde1461038e578063c87b56dd146103b7578063da2ed03e146103f4578063e985e9c51461041d578063f2fde38b1461045a57610114565b8063715018a6146102cf5780638da5cb5b146102e657806394383f141461031157806395d89b411461033a578063a22cb4651461036557610114565b806323b872dd116100e757806323b872dd146101e757806342842e0e1461021057806351ed8288146102395780636352211e1461025557806370a082311461029257610114565b806301ffc9a71461011957806306fdde0314610156578063081812fc14610181578063095ea7b3146101be575b600080fd5b34801561012557600080fd5b50610140600480360381019061013b91906122a4565b610483565b60405161014d91906122ec565b60405180910390f35b34801561016257600080fd5b5061016b6104e4565b60405161017891906123a0565b60405180910390f35b34801561018d57600080fd5b506101a860048036038101906101a391906123f8565b610576565b6040516101b59190612466565b60405180910390f35b3480156101ca57600080fd5b506101e560048036038101906101e091906124ad565b6105bc565b005b3480156101f357600080fd5b5061020e600480360381019061020991906124ed565b6106d4565b005b34801561021c57600080fd5b50610237600480360381019061023291906124ed565b610734565b005b610253600480360381019061024e91906123f8565b610754565b005b34801561026157600080fd5b5061027c600480360381019061027791906123f8565b61090f565b6040516102899190612466565b60405180910390f35b34801561029e57600080fd5b506102b960048036038101906102b49190612540565b610996565b6040516102c6919061257c565b60405180910390f35b3480156102db57600080fd5b506102e4610a4e565b005b3480156102f257600080fd5b506102fb610a62565b6040516103089190612466565b60405180910390f35b34801561031d57600080fd5b5061033860048036038101906103339190612597565b610a8c565b005b34801561034657600080fd5b5061034f610beb565b60405161035c91906123a0565b60405180910390f35b34801561037157600080fd5b5061038c60048036038101906103879190612603565b610c7d565b005b34801561039a57600080fd5b506103b560048036038101906103b09190612778565b610c93565b005b3480156103c357600080fd5b506103de60048036038101906103d991906123f8565b610cf5565b6040516103eb91906123a0565b60405180910390f35b34801561040057600080fd5b5061041b6004803603810190610416919061285b565b610e08565b005b34801561042957600080fd5b50610444600480360381019061043f91906128a8565b610ec0565b60405161045191906122ec565b60405180910390f35b34801561046657600080fd5b50610481600480360381019061047c9190612540565b610f54565b005b6000634906490660e01b7bffffffffffffffffffffffffffffffffffffffffffffffffffffffff1916827bffffffffffffffffffffffffffffffffffffffffffffffffffffffff191614806104dd57506104dc82610fd8565b5b9050919050565b6060600080546104f390612917565b80601f016020809104026020016040519081016040528092919081815260200182805461051f90612917565b801561056c5780601f106105415761010080835404028352916020019161056c565b820191906000526020600020905b81548152906001019060200180831161054f57829003601f168201915b5050505050905090565b6000610581826110ba565b6004600083815260200190815260200160002060009054906101000a900473ffffffffffffffffffffffffffffffffffffffff169050919050565b60006105c78261090f565b90508073ffffffffffffffffffffffffffffffffffffffff168373ffffffffffffffffffffffffffffffffffffffff161415610638576040517f08c379a000000000000000000000000000000000000000000000000000000000815260040161062f906129bb565b60405180910390fd5b8073ffffffffffffffffffffffffffffffffffffffff16610657611105565b73ffffffffffffffffffffffffffffffffffffffff161480610686575061068581610680611105565b610ec0565b5b6106c5576040517f08c379a00000000000000000000000000000000000000000000000000000000081526004016106bc90612a4d565b60405180910390fd5b6106cf838361110d565b505050565b6106e56106df611105565b826111c6565b610724576040517f08c379a000000000000000000000000000000000000000000000000000000000815260040161071b90612adf565b60405180910390fd5b61072f83838361125b565b505050565b61074f83838360405180602001604052806000815250610c93565b505050565b600060096000838152602001908152602001600020604051806040016040529081600082015481526020016001820160009054906101000a900473ffffffffffffffffffffffffffffffffffffffff1673ffffffffffffffffffffffffffffffffffffffff1673ffffffffffffffffffffffffffffffffffffffff16815250509050600081600001511161081d576040517f08c379a000000000000000000000000000000000000000000000000000000000815260040161081490612b71565b60405180910390fd5b80600001513414610863576040517f08c379a000000000000000000000000000000000000000000000000000000000815260040161085a90612bdd565b60405180910390fd5b6108728160200151338461125b565b61087b82611555565b806020015173ffffffffffffffffffffffffffffffffffffffff166108fc349081150290604051600060405180830381858888f193505050501580156108c5573d6000803e3d6000fd5b507f705332a8918666802fc1504f63ff1f002a5f6cedd30d59ad7ae0b5281aeb8dca8282602001513384600001516040516109039493929190612c23565b60405180910390a15050565b60008061091b836115ca565b9050600073ffffffffffffffffffffffffffffffffffffffff168173ffffffffffffffffffffffffffffffffffffffff16141561098d576040517f08c379a000000000000000000000000000000000000000000000000000000000815260040161098490612cc7565b60405180910390fd5b80915050919050565b60008073ffffffffffffffffffffffffffffffffffffffff168273ffffffffffffffffffffffffffffffffffffffff161415610a07576040517f08c379a00000000000000000000000000000000000000000000000000000000081526004016109fe90612d59565b60405180910390fd5b600360008373ffffffffffffffffffffffffffffffffffffffff1673ffffffffffffffffffffffffffffffffffffffff168152602001908152602001600020549050919050565b610a56611607565b610a606000611685565b565b6000600760009054906101000a900473ffffffffffffffffffffffffffffffffffffffff16905090565b60008111610acf576040517f08c379a0000000000000000000000000000000000000000000000000000000008152600401610ac690612deb565b60405180910390fd5b610ad88261174b565b610b17576040517f08c379a0000000000000000000000000000000000000000000000000000000008152600401610b0e90612e57565b60405180910390fd5b60405180604001604052808281526020013373ffffffffffffffffffffffffffffffffffffffff16815250600960008481526020019081526020016000206000820151816000015560208201518160010160006101000a81548173ffffffffffffffffffffffffffffffffffffffff021916908373ffffffffffffffffffffffffffffffffffffffff1602179055509050507f705332a8918666802fc1504f63ff1f002a5f6cedd30d59ad7ae0b5281aeb8dca8260003384604051610bdf9493929190612c23565b60405180910390a15050565b606060018054610bfa90612917565b80601f0160208091040260200160405190810160405280929190818152602001828054610c2690612917565b8015610c735780601f10610c4857610100808354040283529160200191610c73565b820191906000526020600020905b815481529060010190602001808311610c5657829003601f168201915b5050505050905090565b610c8f610c88611105565b838361178c565b5050565b610ca4610c9e611105565b836111c6565b610ce3576040517f08c379a0000000000000000000000000000000000000000000000000000000008152600401610cda90612adf565b60405180910390fd5b610cef848484846118f9565b50505050565b6060610d00826110ba565b6000600660008481526020019081526020016000208054610d2090612917565b80601f0160208091040260200160405190810160405280929190818152602001828054610d4c90612917565b8015610d995780601f10610d6e57610100808354040283529160200191610d99565b820191906000526020600020905b815481529060010190602001808311610d7c57829003601f168201915b505050505090506000610daa611955565b9050600081511415610dc0578192505050610e03565b600082511115610df5578082604051602001610ddd929190612eb3565b60405160208183030381529060405292505050610e03565b610dfe8461196c565b925050505b919050565b610e1260086119d4565b6000610e1e60086119ea565b9050610e2a33826119f8565b610e788184848080601f016020809104026020016040519081016040528093929190818152602001838380828437600081840152601f19601f82011690508083019250505050505050611a16565b7f705332a8918666802fc1504f63ff1f002a5f6cedd30d59ad7ae0b5281aeb8dca8160003386866000604051610eb396959493929190612f49565b60405180910390a1505050565b6000600560008473ffffffffffffffffffffffffffffffffffffffff1673ffffffffffffffffffffffffffffffffffffffff16815260200190815260200160002060008373ffffffffffffffffffffffffffffffffffffffff1673ffffffffffffffffffffffffffffffffffffffff16815260200190815260200160002060009054906101000a900460ff16905092915050565b610f5c611607565b600073ffffffffffffffffffffffffffffffffffffffff168173ffffffffffffffffffffffffffffffffffffffff161415610fcc576040517f08c379a0000000000000000000000000000000000000000000000000000000008152600401610fc390613017565b60405180910390fd5b610fd581611685565b50565b60007f80ac58cd000000000000000000000000000000000000000000000000000000007bffffffffffffffffffffffffffffffffffffffffffffffffffffffff1916827bffffffffffffffffffffffffffffffffffffffffffffffffffffffff191614806110a357507f5b5e139f000000000000000000000000000000000000000000000000000000007bffffffffffffffffffffffffffffffffffffffffffffffffffffffff1916827bffffffffffffffffffffffffffffffffffffffffffffffffffffffff1916145b806110b357506110b282611ac1565b5b9050919050565b6110c38161174b565b611102576040517f08c379a00000000000000000000000000000000000000000000000000000000081526004016110f990612cc7565b60405180910390fd5b50565b600033905090565b816004600083815260200190815260200160002060006101000a81548173ffffffffffffffffffffffffffffffffffffffff021916908373ffffffffffffffffffffffffffffffffffffffff160217905550808273ffffffffffffffffffffffffffffffffffffffff166111808361090f565b73ffffffffffffffffffffffffffffffffffffffff167f8c5be1e5ebec7d5bd14f71427d1e84f3dd0314c0f7b2291e5b200ac8c7c3b92560405160405180910390a45050565b6000806111d28361090f565b90508073ffffffffffffffffffffffffffffffffffffffff168473ffffffffffffffffffffffffffffffffffffffff16148061121457506112138185610ec0565b5b8061125257508373ffffffffffffffffffffffffffffffffffffffff1661123a84610576565b73ffffffffffffffffffffffffffffffffffffffff16145b91505092915050565b8273ffffffffffffffffffffffffffffffffffffffff1661127b8261090f565b73ffffffffffffffffffffffffffffffffffffffff16146112d1576040517f08c379a00000000000000000000000000000000000000000000000000000000081526004016112c8906130a9565b60405180910390fd5b600073ffffffffffffffffffffffffffffffffffffffff168273ffffffffffffffffffffffffffffffffffffffff161415611341576040517f08c379a00000000000000000000000000000000000000000000000000000000081526004016113389061313b565b60405180910390fd5b61134e8383836001611b2b565b8273ffffffffffffffffffffffffffffffffffffffff1661136e8261090f565b73ffffffffffffffffffffffffffffffffffffffff16146113c4576040517f08c379a00000000000000000000000000000000000000000000000000000000081526004016113bb906130a9565b60405180910390fd5b6004600082815260200190815260200160002060006101000a81549073ffffffffffffffffffffffffffffffffffffffff02191690556001600360008573ffffffffffffffffffffffffffffffffffffffff1673ffffffffffffffffffffffffffffffffffffffff168152602001908152602001600020600082825403925050819055506001600360008473ffffffffffffffffffffffffffffffffffffffff1673ffffffffffffffffffffffffffffffffffffffff16815260200190815260200160002060008282540192505081905550816002600083815260200190815260200160002060006101000a81548173ffffffffffffffffffffffffffffffffffffffff021916908373ffffffffffffffffffffffffffffffffffffffff160217905550808273ffffffffffffffffffffffffffffffffffffffff168473ffffffffffffffffffffffffffffffffffffffff167fddf252ad1be2c89b69c2b068fc378daa952ba7f163c4a11628f55a4df523b3ef60405160405180910390a46115508383836001611b31565b505050565b6000600960008381526020019081526020016000206000018190555060006009600083815260200190815260200160002060010160006101000a81548173ffffffffffffffffffffffffffffffffffffffff021916908373ffffffffffffffffffffffffffffffffffffffff16021790555050565b60006002600083815260200190815260200160002060009054906101000a900473ffffffffffffffffffffffffffffffffffffffff169050919050565b61160f611105565b73ffffffffffffffffffffffffffffffffffffffff1661162d610a62565b73ffffffffffffffffffffffffffffffffffffffff1614611683576040517f08c379a000000000000000000000000000000000000000000000000000000000815260040161167a906131a7565b60405180910390fd5b565b6000600760009054906101000a900473ffffffffffffffffffffffffffffffffffffffff16905081600760006101000a81548173ffffffffffffffffffffffffffffffffffffffff021916908373ffffffffffffffffffffffffffffffffffffffff1602179055508173ffffffffffffffffffffffffffffffffffffffff168173ffffffffffffffffffffffffffffffffffffffff167f8be0079c531659141344cd1fd0a4f28419497f9722a3daafe3b4186f6b6457e060405160405180910390a35050565b60008073ffffffffffffffffffffffffffffffffffffffff1661176d836115ca565b73ffffffffffffffffffffffffffffffffffffffff1614159050919050565b8173ffffffffffffffffffffffffffffffffffffffff168373ffffffffffffffffffffffffffffffffffffffff1614156117fb576040517f08c379a00000000000000000000000000000000000000000000000000000000081526004016117f290613213565b60405180910390fd5b80600560008573ffffffffffffffffffffffffffffffffffffffff1673ffffffffffffffffffffffffffffffffffffffff16815260200190815260200160002060008473ffffffffffffffffffffffffffffffffffffffff1673ffffffffffffffffffffffffffffffffffffffff16815260200190815260200160002060006101000a81548160ff0219169083151502179055508173ffffffffffffffffffffffffffffffffffffffff168373ffffffffffffffffffffffffffffffffffffffff167f17307eab39ab6107e8899845ad3d59bd9653f200f220920489ca2b5937696c31836040516118ec91906122ec565b60405180910390a3505050565b61190484848461125b565b61191084848484611b37565b61194f576040517f08c379a0000000000000000000000000000000000000000000000000000000008152600401611946906132a5565b60405180910390fd5b50505050565b606060405180602001604052806000815250905090565b6060611977826110ba565b6000611981611955565b905060008151116119a157604051806020016040528060008152506119cc565b806119ab84611cce565b6040516020016119bc929190612eb3565b6040516020818303038152906040525b915050919050565b6001816000016000828254019250508190555050565b600081600001549050919050565b611a12828260405180602001604052806000815250611da6565b5050565b611a1f8261174b565b611a5e576040517f08c379a0000000000000000000000000000000000000000000000000000000008152600401611a5590613337565b60405180910390fd5b80600660008481526020019081526020016000209080519060200190611a85929190612195565b507ff8e1a15aba9398e019f0b49df1a4fde98ee17ae345cb5f6b5e2c27f5033e8ce782604051611ab5919061257c565b60405180910390a15050565b60007f01ffc9a7000000000000000000000000000000000000000000000000000000007bffffffffffffffffffffffffffffffffffffffffffffffffffffffff1916827bffffffffffffffffffffffffffffffffffffffffffffffffffffffff1916149050919050565b50505050565b50505050565b6000611b588473ffffffffffffffffffffffffffffffffffffffff16611e01565b15611cc1578373ffffffffffffffffffffffffffffffffffffffff1663150b7a02611b81611105565b8786866040518563ffffffff1660e01b8152600401611ba394939291906133ac565b602060405180830381600087803b158015611bbd57600080fd5b505af1925050508015611bee57506040513d601f19601f82011682018060405250810190611beb919061340d565b60015b611c71573d8060008114611c1e576040519150601f19603f3d011682016040523d82523d6000602084013e611c23565b606091505b50600081511415611c69576040517f08c379a0000000000000000000000000000000000000000000000000000000008152600401611c60906132a5565b60405180910390fd5b805181602001fd5b63150b7a0260e01b7bffffffffffffffffffffffffffffffffffffffffffffffffffffffff1916817bffffffffffffffffffffffffffffffffffffffffffffffffffffffff191614915050611cc6565b600190505b949350505050565b606060006001611cdd84611e24565b01905060008167ffffffffffffffff811115611cfc57611cfb61264d565b5b6040519080825280601f01601f191660200182016040528015611d2e5781602001600182028036833780820191505090505b509050600082602001820190505b600115611d9b578080600190039150507f3031323334353637383961626364656600000000000000000000000000000000600a86061a8153600a8581611d8557611d8461343a565b5b0494506000851415611d9657611d9b565b611d3c565b819350505050919050565b611db08383611f77565b611dbd6000848484611b37565b611dfc576040517f08c379a0000000000000000000000000000000000000000000000000000000008152600401611df3906132a5565b60405180910390fd5b505050565b6000808273ffffffffffffffffffffffffffffffffffffffff163b119050919050565b600080600090507a184f03e93ff9f4daa797ed6e38ed64bf6a1f0100000000000000008310611e82577a184f03e93ff9f4daa797ed6e38ed64bf6a1f0100000000000000008381611e7857611e7761343a565b5b0492506040810190505b6d04ee2d6d415b85acef81000000008310611ebf576d04ee2d6d415b85acef81000000008381611eb557611eb461343a565b5b0492506020810190505b662386f26fc100008310611eee57662386f26fc100008381611ee457611ee361343a565b5b0492506010810190505b6305f5e1008310611f17576305f5e1008381611f0d57611f0c61343a565b5b0492506008810190505b6127108310611f3c576127108381611f3257611f3161343a565b5b0492506004810190505b60648310611f5f5760648381611f5557611f5461343a565b5b0492506002810190505b600a8310611f6e576001810190505b80915050919050565b600073ffffffffffffffffffffffffffffffffffffffff168273ffffffffffffffffffffffffffffffffffffffff161415611fe7576040517f08c379a0000000000000000000000000000000000000000000000000000000008152600401611fde906134b5565b60405180910390fd5b611ff08161174b565b15612030576040517f08c379a000000000000000000000000000000000000000000000000000000000815260040161202790613521565b60405180910390fd5b61203e600083836001611b2b565b6120478161174b565b15612087576040517f08c379a000000000000000000000000000000000000000000000000000000000815260040161207e90613521565b60405180910390fd5b6001600360008473ffffffffffffffffffffffffffffffffffffffff1673ffffffffffffffffffffffffffffffffffffffff16815260200190815260200160002060008282540192505081905550816002600083815260200190815260200160002060006101000a81548173ffffffffffffffffffffffffffffffffffffffff021916908373ffffffffffffffffffffffffffffffffffffffff160217905550808273ffffffffffffffffffffffffffffffffffffffff16600073ffffffffffffffffffffffffffffffffffffffff167fddf252ad1be2c89b69c2b068fc378daa952ba7f163c4a11628f55a4df523b3ef60405160405180910390a4612191600083836001611b31565b5050565b8280546121a190612917565b90600052602060002090601f0160209004810192826121c3576000855561220a565b82601f106121dc57805160ff191683800117855561220a565b8280016001018555821561220a579182015b828111156122095782518255916020019190600101906121ee565b5b509050612217919061221b565b5090565b5b8082111561223457600081600090555060010161221c565b5090565b6000604051905090565b600080fd5b600080fd5b60007fffffffff0000000000000000000000000000000000000000000000000000000082169050919050565b6122818161224c565b811461228c57600080fd5b50565b60008135905061229e81612278565b92915050565b6000602082840312156122ba576122b9612242565b5b60006122c88482850161228f565b91505092915050565b60008115159050919050565b6122e6816122d1565b82525050565b600060208201905061230160008301846122dd565b92915050565b600081519050919050565b600082825260208201905092915050565b60005b83811015612341578082015181840152602081019050612326565b83811115612350576000848401525b50505050565b6000601f19601f8301169050919050565b600061237282612307565b61237c8185612312565b935061238c818560208601612323565b61239581612356565b840191505092915050565b600060208201905081810360008301526123ba8184612367565b905092915050565b6000819050919050565b6123d5816123c2565b81146123e057600080fd5b50565b6000813590506123f2816123cc565b92915050565b60006020828403121561240e5761240d612242565b5b600061241c848285016123e3565b91505092915050565b600073ffffffffffffffffffffffffffffffffffffffff82169050919050565b600061245082612425565b9050919050565b61246081612445565b82525050565b600060208201905061247b6000830184612457565b92915050565b61248a81612445565b811461249557600080fd5b50565b6000813590506124a781612481565b92915050565b600080604083850312156124c4576124c3612242565b5b60006124d285828601612498565b92505060206124e3858286016123e3565b9150509250929050565b60008060006060848603121561250657612505612242565b5b600061251486828701612498565b935050602061252586828701612498565b9250506040612536868287016123e3565b9150509250925092565b60006020828403121561255657612555612242565b5b600061256484828501612498565b91505092915050565b612576816123c2565b82525050565b6000602082019050612591600083018461256d565b92915050565b600080604083850312156125ae576125ad612242565b5b60006125bc858286016123e3565b92505060206125cd858286016123e3565b9150509250929050565b6125e0816122d1565b81146125eb57600080fd5b50565b6000813590506125fd816125d7565b92915050565b6000806040838503121561261a57612619612242565b5b600061262885828601612498565b9250506020612639858286016125ee565b9150509250929050565b600080fd5b600080fd5b7f4e487b7100000000000000000000000000000000000000000000000000000000600052604160045260246000fd5b61268582612356565b810181811067ffffffffffffffff821117156126a4576126a361264d565b5b80604052505050565b60006126b7612238565b90506126c3828261267c565b919050565b600067ffffffffffffffff8211156126e3576126e261264d565b5b6126ec82612356565b9050602081019050919050565b82818337600083830152505050565b600061271b612716846126c8565b6126ad565b90508281526020810184848401111561273757612736612648565b5b6127428482856126f9565b509392505050565b600082601f83011261275f5761275e612643565b5b813561276f848260208601612708565b91505092915050565b6000806000806080858703121561279257612791612242565b5b60006127a087828801612498565b94505060206127b187828801612498565b93505060406127c2878288016123e3565b925050606085013567ffffffffffffffff8111156127e3576127e2612247565b5b6127ef8782880161274a565b91505092959194509250565b600080fd5b600080fd5b60008083601f84011261281b5761281a612643565b5b8235905067ffffffffffffffff811115612838576128376127fb565b5b60208301915083600182028301111561285457612853612800565b5b9250929050565b6000806020838503121561287257612871612242565b5b600083013567ffffffffffffffff8111156128905761288f612247565b5b61289c85828601612805565b92509250509250929050565b600080604083850312156128bf576128be612242565b5b60006128cd85828601612498565b92505060206128de85828601612498565b9150509250929050565b7f4e487b7100000000000000000000000000000000000000000000000000000000600052602260045260246000fd5b6000600282049050600182168061292f57607f821691505b60208210811415612943576129426128e8565b5b50919050565b7f4552433732313a20617070726f76616c20746f2063757272656e74206f776e6560008201527f7200000000000000000000000000000000000000000000000000000000000000602082015250565b60006129a5602183612312565b91506129b082612949565b604082019050919050565b600060208201905081810360008301526129d481612998565b9050919050565b7f4552433732313a20617070726f76652063616c6c6572206973206e6f7420746f60008201527f6b656e206f776e6572206f7220617070726f76656420666f7220616c6c000000602082015250565b6000612a37603d83612312565b9150612a42826129db565b604082019050919050565b60006020820190508181036000830152612a6681612a2a565b9050919050565b7f4552433732313a2063616c6c6572206973206e6f7420746f6b656e206f776e6560008201527f72206f7220617070726f76656400000000000000000000000000000000000000602082015250565b6000612ac9602d83612312565b9150612ad482612a6d565b604082019050919050565b60006020820190508181036000830152612af881612abc565b9050919050565b7f4e46544d61726b65743a206e6674206e6f74206c697374656420666f7220736160008201527f6c65000000000000000000000000000000000000000000000000000000000000602082015250565b6000612b5b602283612312565b9150612b6682612aff565b604082019050919050565b60006020820190508181036000830152612b8a81612b4e565b9050919050565b7f4e46544d61726b65743a20696e636f7272656374207072696365000000000000600082015250565b6000612bc7601a83612312565b9150612bd282612b91565b602082019050919050565b60006020820190508181036000830152612bf681612bba565b9050919050565b50565b6000612c0d600083612312565b9150612c1882612bfd565b600082019050919050565b600060a082019050612c38600083018761256d565b612c456020830186612457565b612c526040830185612457565b8181036060830152612c6381612c00565b9050612c72608083018461256d565b95945050505050565b7f4552433732313a20696e76616c696420746f6b656e2049440000000000000000600082015250565b6000612cb1601883612312565b9150612cbc82612c7b565b602082019050919050565b60006020820190508181036000830152612ce081612ca4565b9050919050565b7f4552433732313a2061646472657373207a65726f206973206e6f74206120766160008201527f6c6964206f776e65720000000000000000000000000000000000000000000000602082015250565b6000612d43602983612312565b9150612d4e82612ce7565b604082019050919050565b60006020820190508181036000830152612d7281612d36565b9050919050565b7f4e46544d61726b65743a207072696365206d757374206265206772656174657260008201527f207468616e203000000000000000000000000000000000000000000000000000602082015250565b6000612dd5602783612312565b9150612de082612d79565b604082019050919050565b60006020820190508181036000830152612e0481612dc8565b9050919050565b7f4e46544d61726b65743a20746f6b656e20646f6573206e6f7420657869737400600082015250565b6000612e41601f83612312565b9150612e4c82612e0b565b602082019050919050565b60006020820190508181036000830152612e7081612e34565b9050919050565b600081905092915050565b6000612e8d82612307565b612e978185612e77565b9350612ea7818560208601612323565b80840191505092915050565b6000612ebf8285612e82565b9150612ecb8284612e82565b91508190509392505050565b6000612ee38385612312565b9350612ef08385846126f9565b612ef983612356565b840190509392505050565b6000819050919050565b6000819050919050565b6000612f33612f2e612f2984612f04565b612f0e565b6123c2565b9050919050565b612f4381612f18565b82525050565b600060a082019050612f5e600083018961256d565b612f6b6020830188612457565b612f786040830187612457565b8181036060830152612f8b818587612ed7565b9050612f9a6080830184612f3a565b979650505050505050565b7f4f776e61626c653a206e6577206f776e657220697320746865207a65726f206160008201527f6464726573730000000000000000000000000000000000000000000000000000602082015250565b6000613001602683612312565b915061300c82612fa5565b604082019050919050565b6000602082019050818103600083015261303081612ff4565b9050919050565b7f4552433732313a207472616e736665722066726f6d20696e636f72726563742060008201527f6f776e6572000000000000000000000000000000000000000000000000000000602082015250565b6000613093602583612312565b915061309e82613037565b604082019050919050565b600060208201905081810360008301526130c281613086565b9050919050565b7f4552433732313a207472616e7366657220746f20746865207a65726f2061646460008201527f7265737300000000000000000000000000000000000000000000000000000000602082015250565b6000613125602483612312565b9150613130826130c9565b604082019050919050565b6000602082019050818103600083015261315481613118565b9050919050565b7f4f776e61626c653a2063616c6c6572206973206e6f7420746865206f776e6572600082015250565b6000613191602083612312565b915061319c8261315b565b602082019050919050565b600060208201905081810360008301526131c081613184565b9050919050565b7f4552433732313a20617070726f766520746f2063616c6c657200000000000000600082015250565b60006131fd601983612312565b9150613208826131c7565b602082019050919050565b6000602082019050818103600083015261322c816131f0565b9050919050565b7f4552433732313a207472616e7366657220746f206e6f6e20455243373231526560008201527f63656976657220696d706c656d656e7465720000000000000000000000000000602082015250565b600061328f603283612312565b915061329a82613233565b604082019050919050565b600060208201905081810360008301526132be81613282565b9050919050565b7f45524337323155524953746f726167653a2055524920736574206f66206e6f6e60008201527f6578697374656e7420746f6b656e000000000000000000000000000000000000602082015250565b6000613321602e83612312565b915061332c826132c5565b604082019050919050565b6000602082019050818103600083015261335081613314565b9050919050565b600081519050919050565b600082825260208201905092915050565b600061337e82613357565b6133888185613362565b9350613398818560208601612323565b6133a181612356565b840191505092915050565b60006080820190506133c16000830187612457565b6133ce6020830186612457565b6133db604083018561256d565b81810360608301526133ed8184613373565b905095945050505050565b60008151905061340781612278565b92915050565b60006020828403121561342357613422612242565b5b6000613431848285016133f8565b91505092915050565b7f4e487b7100000000000000000000000000000000000000000000000000000000600052601260045260246000fd5b7f4552433732313a206d696e7420746f20746865207a65726f2061646472657373600082015250565b600061349f602083612312565b91506134aa82613469565b602082019050919050565b600060208201905081810360008301526134ce81613492565b9050919050565b7f4552433732313a20746f6b656e20616c7265616479206d696e74656400000000600082015250565b600061350b601c83612312565b9150613516826134d5565b602082019050919050565b6000602082019050818103600083015261353a816134fe565b905091905056fea2646970667358221220285d38a3e64dcf76dba40b805fde6b83d2ab8776c3a27ce0086c31576412be9164736f6c63430008090033",
  "linkReferences": {},
  "deployedLinkReferences": {}
}